:100000000C949E000C94C6000C94C6000C94C60080
:100010000C94C6000C94C6000C94C6000C94C60048
:100020000C94C6000C94C6000C94C6000C94C60038
:100030000C94C6000C94C6000C94C6000C94C60028
:100040000C94BB020C94C6000C942B030C94050377
:100050000C94C6000C94C6000C94C6000C94C60008
:100060000C9464030C94C60007634236B79BD8A770
:100070001A39685618AEBAAB558C1D3CB7CC5763CD
:10008000BD6DEDFD753EF6177231BF000000803F7B
:1000900008000000BE922449123EABAAAA2ABECD97
:1000A000CCCC4C3E00000080BEABAAAAAA3E000009
:1000B0000000BF000000803F000000000008417801
:1000C000D3BB4387D1133D190E3CC3BD4282AD2B38
:1000D0003E68EC8276BED98FE1A93E4C80EFFFBE30
:1000E00001C4FF7F3F000000000000000008000284
:1000F00001000003040700000000000000000000F1
:100100000000250028002B0000000000240027002C
:100110002A00040404040404040402020202020289
:1001200003030303030301020408102040800102BB
:1001300004081020010204081020BA0E11241FBE6A
:10014000CFEFD8E0DEBFCDBF11E0A0E0B1E0E2E24A
:10015000FAE202C005900D92A438B107D9F723E066
:10016000A4E8B1E001C01D92A632B207E1F710E0A9
:10017000CEE9D0E004C02197FE010E94E010CD3905
:10018000D107C9F70E94A10C0C940F150C94000024
:10019000CF92DF92EF92FF920F931F93CF93DF9353
:1001A0006C017A018B01C0E0D0E0CE15DF0581F053
:1001B000D8016D918D01D601ED91FC910190F081F6
:1001C000E02DC6010995892B11F02196EECF7E0115
:1001D000C701DF91CF911F910F91FF90EF90DF90BA
:1001E000CF900895FC01538D448D252F30E0842F4E
:1001F00090E0821B930B541710F0CF96089501974F
:100200000895FC01918D828D981761F0828DDF0138
:10021000A80FB11D5D968C91928D9F5F9F73928FF9
:1002200090E008958FEF9FEF0895FC01918D828DEE
:10023000981731F0828DE80FF11D858D90E00895BB
:100240008FEF9FEF0895FC01918D228D892F90E013
:10025000805C9F4F821B91098F739927089584E4D6
:1002600092E00E94230121E0892B09F420E0822FF3
:100270000895FC01848DDF01A80FB11DA35ABF4F63
:100280002C91848D90E001968F739927848FA68995
:10029000B7892C93A089B1898C91837080648C93E9
:1002A000938D848D981306C00288F389E02D808198
:1002B0008F7D80830895EF92FF920F931F93CF93CA
:1002C000DF93EC0181E0888F9B8D8C8D981305C0A6
:1002D000E889F989808185FD26C0F62E0B8D10E016
:1002E0000F5F1F4F0F731127E02E8C8DE8120CC08B
:1002F0000FB607FCFACFE889F989808185FFF5CF31
:10030000CE010E943901F1CF8B8DFE01E80FF11D66
:10031000E35AFF4FF0829FB7F8940B8FEA89FB896D
:10032000808180620AC09FB7F894EE89FF8960835C
:10033000E889F98980818370806480839FBF81E030
:1003400090E0DF91CF911F910F91FF90EF90089572
:10035000CF93DF93EC01888D8823C9F0EA89FB896C
:10036000808185FD05C0A889B9898C9186FD0FC063
:100370000FB607FCF5CF808185FFF2CFA889B98938
:100380008C9185FFEDCFCE010E943901E7CFDF913F
:10039000CF91089580E090E0892B29F00E942F01F1
:1003A00081110C940000089585ED8093BC0080912C
:1003B000BC0084FDFCCF10921F0208954091A6015D
:1003C000262F30E0240F311D21323105DCF420913D
:1003D0001F022430C9F4FC0180E090E0861758F435
:1003E0003091A6012191DC01AC57BE4FA30FB11D86
:1003F0002C930196F3CF8091A601680F6093A6011C
:1004000080E0089581E0089582E0089508950895B8
:100410000895E091D8018091D701E81730F4F0E019
:10042000E752FE4F808190E008958FEF9FEF08958F
:100430009091D8018091D701981750F4E92FF0E0FE
:10044000E752FE4F208130E09F5F9093D80102C0B9
:100450002FEF3FEFC90108958091D70190E02091DF
:10046000D801821B91090895CF92DF92EF92FF92FB
:100470000F931F93CF93DF937C01CB018A012091CF
:100480002002222389F0EB016B01C40ED51ECC158E
:10049000DD0569F06991D701ED91FC910190F08142
:1004A000E02DC7010995F3CF642F0E94DE01C8013A
:1004B000DF91CF911F910F91FF90EF90DF90CF9040
:1004C0000895CF93DF931F92CDB7DEB76983209154
:1004D00020022223D1F020914302203240F021E07B
:1004E00030E0FC013383228380E090E015C08091EE
:1004F0002102E82FF0E0EE5DFD4F998190838F5F40
:10050000809321028093430205C061E0CE010196F1
:100510000E94DE0181E090E00F90DF91CF9108957D
:10052000089580E090E008950E940A153FB7F8947E
:100530008091D2019091D301A091D401B091D501C5
:1005400026B5A89B05C02F3F19F00196A11DB11D2E
:100550003FBFBA2FA92F982F8827820F911DA11D69
:10056000B11DBC01CD0143E0660F771F881F991FA5
:100570004A95D1F708951F920F920FB60F9211244A
:100580002F933F938F939F93AF93BF938091CE010F
:100590009091CF01A091D001B091D1013091CD01C6
:1005A00026E0230F2D3720F40296A11DB11D05C0B2
:1005B00029E8230F0396A11DB11D2093CD0180933F
:1005C000CE019093CF01A093D001B093D10180913F
:1005D000D2019091D301A091D401B091D50101969F
:1005E000A11DB11D8093D2019093D301A093D4019A
:1005F000B093D501BF91AF919F918F913F912F9172
:100600000F900FBE0F901F9018951F920F920FB66C
:100610000F9211242F933F934F935F936F937F9388
:100620008F939F93AF93BF93EF93FF9384E492E0F4
:100630000E943901FF91EF91BF91AF919F918F91EE
:100640007F916F915F914F913F912F910F900FBECE
:100650000F901F9018951F920F920FB60F921124B2
:100660002F938F939F93EF93FF93E0915402F09118
:1006700055028081E0915A02F0915B0282FD12C026
:10068000908180915D028F5F8F7320915E0282174F
:1006900051F0E0915D02F0E0EC5BFD4F958F8093AF
:1006A0005D0201C08081FF91EF919F918F912F9109
:1006B0000F900FBE0F901F9018958EBD00000DB4C7
:1006C00007FEFDCF8EB508951F920F920FB60F92C1
:1006D00011242F933F934F935F936F937F938F9347
:1006E0009F93AF93BF93EF93FF938091B900887F5F
:1006F000803609F49CC068F5883209F45BC090F438
:10070000803109F454C038F4882309F4F6C08830E5
:1007100009F44DC0F6C0883109F44CC0803209F4A8
:100720005DC0EFC0803409F468C048F4803309F438
:1007300055C0883309F0E5C080931D02D8C08035CC
:1007400009F44FC0883509F45DC0883409F0D9C078
:10075000D6C0883909F4C7C0A8F4883709F467C03F
:1007600038F4883609F463C0803709F460C0C9C022
:10077000883809F4B8C0803909F45FC0803809F0BE
:10078000C0C05BC0803B09F486C038F4803A09F4ED
:1007900066C0883A09F47FC0B4C0803C09F4A7C0A1
:1007A000883C09F4A4C0883B09F48AC0AAC080919F
:1007B000FA0110C090911C0280911B02981770F5ED
:1007C000E0911C0281E08E0F80931C02F0E0E55066
:1007D000FE4F80818093BB0085EC86C080931D0214
:1007E0008EC0E0911C0281E08E0F80931C028091EC
:1007F000BB00F0E0E550FE4F808390911C02809199
:100800001B026EC0E0911C0281E08E0F80931C02DF
:100810008091BB00F0E0E550FE4F808380911E0286
:1008200081116DC081E08093F90184EA61C083E0A9
:1008300080931F021092CA01CFCF8091CA018032EB
:1008400008F051C0E091CA0181E08E0F8093CA0187
:100850008091BB00F0E0E655FE4F8083BDCF85EC74
:100860008093BC0010921F028091CA01803230F444
:10087000E091CA01F0E0E655FE4F10826091CA0196
:1008800070E0E091A801F091A9018AEA91E0099550
:100890001092CA0136C084E080931F021092A70113
:1008A0001092A601E091A401F091A5010995809113
:1008B000A601811105C081E08093A60110928401F8
:1008C000E091A70181E08E0F8093A701F0E0EC5743
:1008D000FE4F80818093BB009091A7018091A6017B
:1008E000981708F479CF85E88093BC000AC085EC9E
:1008F0008093BC0010921F0204C010921D020E943F
:10090000D401FF91EF91BF91AF919F918F917F9112
:100910006F915F914F913F912F910F900FBE0F906C
:100920001F9018951092D8011092D70110922102B1
:100930001092430210921F0281E080931E021092D7
:10094000F90161E082E10E94E50561E083E10E9436
:10095000E505E9EBF0E080818E7F808380818D7FEB
:10096000808380E28093B80085E48093BC0086E0B9
:1009700092E09093A5018093A40187E092E0909388
:10098000A9018093A80108952F923F924F925F9200
:100990006F927F928F929F92AF92BF92CF92DF928F
:1009A000EF92FF920F931F93CF93DF93CDB7DEB7F4
:1009B000A4970FB6F894DEBF0FBECDBF4B015C010C
:1009C000F42E9B01AC010E94D013882319F088E714
:1009D00091E027C024013501E89477F82FEF3FEF2D
:1009E0004FE75FE7C301B2010E94D01381110DC030
:1009F0002FEF3FEF4FE75FE7C301B2010E946211A3
:100A000018161CF48CE791E00CC02FEF3FEF4FE776
:100A10005FE4C501B4010E940E1318162CF480E89F
:100A200091E00E94360BB8C02FEF3FEF4FE75FEC2D
:100A3000C501B4010E94621187FDF1CF20E030E0D2
:100A4000A901C501B4010E94621187FF0BC06DE2CC
:100A500084E492E00E945B013C01B7FAB094B7F8DD
:100A6000B09402C0612C712C10E060E070E080E076
:100A70009FE3F11641F020E030E040E251E40E94B3
:100A800067111F5FF6CFA50194010E94F6104B017C
:100A90005C010E94D9116AA3C72ED82EE92E19A293
:100AA000262F372F482F592F8E010F5D1F4F0BA375
:100AB0001CA39AE0292E312C412C512CCA01B901DA
:100AC000A20191010E94260F605DF80162938F01DF
:100AD000211531054105510589F7CF010E94360BDB
:100AE0008301080F191FFF2009F455C06AA17C2D4E
:100AF0008D2D9E2D0E940E129B01AC01C501B401EB
:100B00000E94F5104B015C016EE284E492E00E94C9
:100B10005B01080F191F8AE0282E312C412C512C23
:100B200020E030E040E251E4C501B4010E9413131B
:100B30004B015C010E94D9119B0140E050E019A2D9
:100B4000CBA0DCA0762E3AA3642EE52ECA01B90113
:100B5000A20191010E94260F605DF60162936F0170
:100B6000211531054105510589F7CF010E94360B4A
:100B7000080F191F672D7AA1862D9E2D0E940E1237
:100B80009B01AC01C501B4010E94F5104B015C0151
:100B9000FA94F110C5CFC801A4960FB6F894DEBF41
:100BA0000FBECDBFDF91CF911F910F91FF90EF90BE
:100BB000DF90CF90BF90AF909F908F907F906F907D
:100BC0005F904F903F902F90089590E0FC01E65188
:100BD000FF4F2491FC01EA5DFE4F3491FC01EE5E73
:100BE000FE4FE491EE2309F43CC0222339F1233077
:100BF00091F038F42130A9F0223001F584B58F7DD1
:100C000012C0273091F02830A1F02430B9F480913F
:100C100080008F7D03C0809180008F77809380005B
:100C20000DC084B58F7784BD09C08091B0008F77E7
:100C300003C08091B0008F7D8093B000F0E0EE0F94
:100C4000FF1FE250FF4FA591B4919FB7F894611137
:100C500004C08C913095382302C0EC913E2B3C931C
:100C60009FBF08958F929F92AF92BF92CF92DF92D3
:100C7000EF92FF92CF93DF930E9496024B015C01AB
:100C800062E0C62ED12CE12CF12C0E949602DC01F0
:100C9000CB0188199909AA09BB09883E9340A1058F
:100CA000B10598F321E0C21AD108E108F10888EEF5
:100CB000880E83E0981EA11CB11CC114D104E1046C
:100CC000F10419F78091ED02882319F0813069F061
:100CD00052C080911F03813009F04DC080912003E4
:100CE000909121030E94920446C0CFB7F89480915E
:100CF000D601811124C0ECE1F1E08491E0E3F1E060
:100D00009491E82FF0E0EE0FFF1FE85FFE4FA591F2
:100D1000B491EC91E92321F461E08AE00E94E505B9
:100D20008AE00E94170B8CB580618CBD8CB5806405
:100D30008CBD8DE00E94170B8BE00E94170B8091F9
:100D4000D6018F5F8093D601CFBF8CB58C7F826038
:100D50008CBD8DB581608DBD8CB58F7D8CBD8CB506
:100D60008C608CBD8091EF020E94170B61E0809136
:100D7000EF020E94E50580ED0E94E60B883519F030
:100D8000803609F0A7C189E80E94E60BC82F88E8E1
:100D90000E94E60B2C2F30E0322F2227280F311D26
:100DA0003093FB022093FA028BE80E94E60BC82FD7
:100DB0008AE80E94E60B2C2F30E0322F2227280FE2
:100DC000311D3093FD022093FC028DE80E94E60B5A
:100DD000C82F8CE80E94E60B2C2F30E0322F222700
:100DE000280F311D3093FF022093FE028FE80E94EE
:100DF000E60BC82F8EE80E94E60B2C2F30E0322F36
:100E00002227280F311D309301032093000381E92D
:100E10000E94E60BC82F80E90E94E60B2C2F30E0E1
:100E2000322F2227280F311D309303032093020312
:100E300083E90E94E60BC82F82E90E94E60B2C2F63
:100E400030E0322F2227280F311D309305032093E5
:100E5000040385E90E94E60BC82F84E90E94E60B93
:100E60002C2F30E0322F2227280F311D309307031B
:100E70002093060387E90E94E60BC82F86E90E94AB
:100E8000E60B2C2F30E0322F2227280F311D309314
:100E900009032093080389E90E94E60BC82F88E91B
:100EA0000E94E60B2C2F30E0322F2227280F311D15
:100EB00030930B0320930A038BE90E94E60BC82FA3
:100EC0008AE90E94E60B2C2F30E0322F2227280FD0
:100ED000311D30930D0320930C038DE90E94E60B26
:100EE000C82F8CE90E94E60B2C2F30E0322F2227EE
:100EF000280F311D30930F0320930E038FE90E94BA
:100F0000E60BC82F8EE90E94E60B2C2F30E0322F23
:100F10002227280F311D309311032093100381EAFB
:100F20000E94E60B8093120382EE0E94E60BC82F0C
:100F300081EE0E94E60B2C2F30E0322F2227280F63
:100F4000311D309314032093130383EE0E94E60BAC
:100F50008093150384EE0E94E60BC82F85EE0E9455
:100F6000E60B8F7090E020E1C29F800D911D11244F
:100F7000909317038093160386EE0E94E60BC82F0A
:100F800085EE0E94E60B82958F7090E020E1C29F73
:100F9000800D911D1124909319038093180387EEFF
:100FA0000E94E60B80931A03C091F102C83008F04A
:100FB000C0E085EF0E94E60B90E2C99F90011124EA
:100FC0008F71682F622B85EF0E94470CC091F2024F
:100FD000C83008F0C0E085EF0E94E60B94E0C99F9E
:100FE00090011124837E682F622B85EF0E94470CAD
:100FF000E091F402E13128F4F0E0E050FF4FC081CD
:1010000001C0C1E084EF0E94E60BD82F80E00E946F
:10101000920C84EF0E94E60B94E0C99F900111248A
:10102000837E682F622B84EF0E94470C8D2F837084
:101030000E94920CE091F502E13128F4F0E0E050DA
:10104000FF4FC08101C0C1E084EF0E94E60BD82FA2
:1010500080E00E94920C82EF0E94E60B887F682F4E
:101060006C2B82EF0E94470C8D2F83700E94920C94
:10107000E091F302E13128F4F0E0E050FF4FC0814D
:1010800001C0C1E084EF0E94E60BD82F80E00E94EF
:10109000920C84EF0E94E60B90E2C99F900111240C
:1010A0008F71682F622B84EF0E94470C8D2F837005
:1010B0000E94920C83E00E94920C80EDDF91CF9110
:1010C000FF90EF90DF90CF90BF90AF909F908F9068
:1010D0000C94E60BDF91CF91FF90EF90DF90CF90D3
:1010E000BF90AF909F908F9008950F931F93CF93D1
:1010F000DF93EC01062F142F8091ED02882389F0F5
:10110000813009F069C060E08091EF020E94E5053E
:10111000802F80680E945D03CE01810F911D8C019C
:101120004AC080911F03813009F056C09091EE02B1
:101130008093200290934202109221021092430267
:101140008091200390912103DC01ED91FC910190AD
:10115000F081E02D099581E00E94480B612F11324A
:1011600008F060E28091EE020E94A40B1092D80178
:101170008093D701CE01810F911D8C0180912003B6
:1011800090912103DC01ED91FC910084F185E02D2B
:101190000995892B09F1C017D107F1F0809120033F
:1011A00090912103DC01ED91FC910284F385E02D07
:1011B00009958993E3CFC017D10729F080E00E94F9
:1011C0005D038993F8CF61E08091EF02DF91CF91C9
:1011D0001F910F910C94E505DF91CF911F910F9115
:1011E00008952F923F924F925F926F927F928F92CB
:1011F0009F92AF92BF92CF92DF92EF92FF920F93A6
:101200001F93CF93DF93CDB7DEB76A970FB6F894ED
:10121000DEBF0FBECDBF43E067EFCE0101960E9457
:10122000750880911B0390911C03A0911D03B09140
:101230001E036C017D01FF0CCC08DC2C76019C01A7
:10124000AD016C2D7C2D8C2D9C2D345F41405109BE
:1012500061097109810991092C873D874E875F8754
:10126000688B772E4C0159016A01E62EF72E8C010E
:101270000E945B0F622E532E442E352E262E788F21
:10128000898F9A8F3091030320910203932F990F36
:10129000990B492F592F692F792F892F0E945B0FA6
:1012A0000CE00E948B102C83398B4A8B5B8B6C8BF0
:1012B0007D8B8E8B9F8B3091050320910403932FA0
:1012C000990F990BA62CB52CC42CD32CE22CF88C9E
:1012D000098D1A8D492F592F692F792F892F0E9437
:1012E0005B0F08E00E94A410AC80B988CA88DB8834
:1012F000EC88FD880E891F890E94C21070588F4F9C
:101300009F4FE0910003F09101035F01C12CD12CAC
:10131000E12CF12C8701EC83BD82CE82DF82E8864E
:10132000F9860A871B87C12CD12CE12CF12C00E017
:1013300010E00E945B0F01E20E94A4102C83398B05
:101340004A8B5B8B6C8B7D8B8E8B9F8BA0E00E947E
:10135000D41009F431C130910B0320910A03932F6B
:10136000990F990BA62CB52CC42CD32CE22CF88CFD
:10137000098D1A8D492F592F692F792F892F0E9496
:101380005B0F19012A01662E788F898F9A8F309111
:10139000090320910803932F990F990BAC84BD8406
:1013A000CE84DF84E888F72C8401492F592F692FD8
:1013B000792F892F0E945B0F01E10E948B10510150
:1013C0006201E62CF88C098D1A8D0E94C210590119
:1013D0006A017B01182F392E4A8150E060E070E0ED
:1013E00084E0440F551F661F771F8A95D1F78B81C4
:1013F00082958F702A013B01482A498150E060E0C4
:1014000070E0DB01CA012CE0880F991FAA1FBB1FE7
:101410002A95D1F7B301A201482B592B6A2B7B2BBC
:1014200080E090E0A0E1B0E0841B950BA60BB70B29
:101430002C013D01770C4408542C32019C01AD0174
:10144000642D742D842D942D0FE10E948B10390191
:101450004A01B62FA72FF82FE92F309107032091CB
:101460000603932F990F990B492F592F692F792F25
:10147000892F03E20E948B10012F132D0E94C210AE
:1014800059016A017B018C019301A4016B2F7A2F12
:101490008F2F9E2F0E94CB10E5E3AE2EFCE0BF2ED7
:1014A000C12CD12CE12CF12C00E010E00E945B0F4C
:1014B000AC80B988CA88DB88EC88FD880E891F89D2
:1014C0000E94B60F2C873D874E875F87688B7C8391
:1014D000898B9A8B0DE00E94A410922E832E742E7D
:1014E000652E562E472E382E292E3091110320912D
:1014F0001003932F990F990BA92CB82CC72CD62C1D
:10150000E52CF42C032D122D492F592F692F792FFB
:10151000892F0E945B0F0E945B0F09E10E94A410BB
:10152000AC84BD84CE84DF84E888FC8009891A8974
:101530000E94C21019012A013B014C0130910F0396
:1015400020910E03932F990F990B492F592F692F33
:10155000792F892F0E945B0F03E10E94A41059018B
:101560006A017B018C019101A201B301C4010E94B7
:10157000C21008E00E94A41059016A017B01E82F03
:10158000192F30910D0320910C03932F990F990B74
:10159000492F592F692F792F892F04E00E948B1032
:1015A0000E2F0E94C2100E94081220E030E040E896
:1015B0005BE30E94131303C060E070E0CB016A9606
:1015C0000FB6F894DEBF0FBECDBFDF91CF911F9154
:1015D0000F91FF90EF90DF90CF90BF90AF909F90D2
:1015E0008F907F906F905F904F903F902F900895D5
:1015F0000E94F1082091220330912303409124039B
:10160000509125030E9467112EE434ED42E45EE31D
:101610000E94801320E030E040E85FE30E94F51074
:1016200025EC3AE24DE257EC0E941313089590E046
:10163000FC01EA5DFE4F2491FC01EE5EFE4F8491B9
:10164000882399F090E0880F991FFC01E85FFE4F16
:10165000A591B491FC01E250FF4F859194918FB711
:10166000F894EC91E22BEC938FBF0895009769F00A
:10167000FC0101900020E9F73197AF01481B590B9D
:10168000BC0184E492E00C94C80080E090E00895EE
:10169000282F30914302313208F04AC080911F0256
:1016A0008111FCCF9091420242E040931F022093AF
:1016B0001E022FEF20931D0210921C0230931B027A
:1016C000E2E2F2E0ABEFB1E020E0321721F041912D
:1016D0004D932F5FFACF1092FA012091FA01990FE2
:1016E000922B9093FA019091F901913061F410924C
:1016F000F9019091FA019093BB009091BC0093FD89
:10170000F8CF95EC01C095EE9093BC0090911F022C
:101710009230E1F390911D029F3F79F080911D027C
:10172000803241F080911D02803331F084E005C0A9
:1017300081E003C082E001C083E010922102109298
:10174000430210922002089590911F029111FCCF44
:1017500091E090931F0290931E022FEF20931D02A1
:1017600010921C02260F20931B029093FA01909175
:10177000FA01880F892B8093FA018091F901813059
:1017800061F41092F9018091FA018093BB0080917D
:10179000BC0083FDF8CF85EC01C085EE8093BC00D2
:1017A00080911F028130E1F380911C02861710F4B2
:1017B00060911C02ABEFB1E0E9EDF1E080E086174B
:1017C00021F09D9191938F5FFACF0895CF93C82F09
:1017D0008091ED028823B1F0813009F054C060E0BF
:1017E0008091EF020E94E5058C2F80680E945D03C6
:1017F00080E00E945D03C82F61E08091EF020E94AB
:10180000E50542C080911F038130E9F59091EE0219
:101810008093200290934202109221021092430280
:101820008091200390912103DC01ED91FC910190C6
:10183000F081E02D6C2F099581E00E94480B61E05A
:101840008091EE020E94A40B1092D8018093D701E0
:10185000C0E08091200390912103DC01ED91FC9187
:101860000084F185E02D0995892B71F0809120038A
:1018700090912103DC01ED91FC910284F385E02D30
:101880000995C82FE6CFC0E08C2FCF910895CF9354
:10189000DF93D82FC62F8091ED028823A9F08130E5
:1018A000F1F560E08091EF020E94E5058D2F8F77C2
:1018B0000E945D038C2F0E945D0361E08091EF0226
:1018C000DF91CF910C94E50580911F03813039F5AC
:1018D0009091EE0280932002909342021092210296
:1018E000109243028091200390912103DC01ED913D
:1018F000FC910190F081E02D6D2F099580912003DE
:1019000090912103DC01ED91FC910190F081E02D9B
:101910006C2F099581E0DF91CF910C94480BDF91FA
:10192000CF910895CF93C82F843008F0C0E084EFA2
:101930000E94E60B8C7F682F6C2B84EFCF910C9468
:10194000470CCF93DF93CDB7DEB768970FB6F89407
:10195000DEBF0FBECDBF789484B5826084BD84B5F0
:10196000816084BD85B5826085BD85B5816085BD9A
:1019700080916E00816080936E0010928100809152
:1019800081008260809381008091810081608093DA
:101990008100809180008160809380008091B100FF
:1019A00084608093B1008091B00081608093B0002A
:1019B00080917A00846080937A0080917A008260BE
:1019C00080937A0080917A008E7F80937A00809154
:1019D0007A00806880937A001092C10081EE92E0D4
:1019E0000E949204E0915402F091550282E08083BB
:1019F000E0915002F09151021082E0915202F09178
:101A0000530287E6808310925C02E0915802F091C5
:101A1000590286E08083E0915602F091570280815E
:101A200080618083E0915602F09157028081886046
:101A30008083E0915602F091570280818068808314
:101A4000E0915602F091570280818F7D8083109241
:101A5000CC011092CB0181EE92E090932103809310
:101A6000200381E080931F031092ED020E94320652
:101A7000883569F00E943206803649F08BE591E0A6
:101A80000E94360B88E591E00E94360BFFCF8DE077
:101A90000E94170B8E010F5F1F4F1E0121E1220EC6
:101AA000311C61E08DE00E94E5050E94F1086D8B1C
:101AB0007E8B8F8B988F42E06DEFC8010E94750876
:101AC00080911B0390911C03A0911D03B0911E03F4
:101AD0002C013D012CE2521A21E0620A7108C980F2
:101AE000DA80DC24CD24DC24E12CF12C7EE0CC0C4B
:101AF000DD1CEE1CFF1C7A95D1F7809116039091A6
:101B00001703092E000CAA0BBB0BE4E1880F991FE9
:101B1000AA1FBB1FEA95D1F7C81AD90AEA0AFB0A1D
:101B2000A0911803B0911903A30192010E94530FD1
:101B3000C61AD70AE80AF90A80E4D80EE11CF11C9B
:101B4000FFE0F594E794D794C794FA95D1F7A09164
:101B50001503B0E00E94480F4B015C01ABE0B59467
:101B6000A79497948794AA95D1F7E0E89E0EA11CBC
:101B7000B11CA0911A030A2E000CBB0B0E94530F3C
:101B8000BAE09595879577956795BA95D1F7A501B0
:101B900094010E94160FDC01CB012AE0B595A795B0
:101BA000979587952A95D1F79C01AD01405E5F4FCF
:101BB000A0911303B09114030E94530FDC01CB01D9
:101BC000905EAF4FBF4FBC01CD013EE0959587952C
:101BD000779567953A95D1F7A70196010E94160F60
:101BE0006B017C014FE095958795779567954A95B0
:101BF000D1F79B01AC010E94160F9B01AC0167E07D
:101C000055954795379527956A95D1F7A091120379
:101C1000B0E00E94480FDC01CB0174E0B595A795B8
:101C2000979587957A95D1F7C81AD90AEA0AFB0AD7
:101C3000F7FE03C0C12CD12C76010E94F80A4B019B
:101C40005C0185E391E00E94360B43E06D897E895B
:101C50008F89988D0E94C40489E391E00E94360B1D
:101C6000F1E0CF16D104E104F9E1FF062CF0C12C1C
:101C7000D12CE12C69E1F62EC701B6015CE0959507
:101C80008795779567955A95D1F70E94101220E0B5
:101C900030E040E85AE30E94131343E00E94C4047A
:101CA0008DE391E00E94360B43E0C501B4010E9430
:101CB000C40489E591E00E94360B8091CB0190919C
:101CC000CC01029709F053C0F80124E111922A9542
:101CD000E9F785E0C82ED12CE12CF12C99EF492EA3
:101CE00022E0522E35E1632E40E5742EF801848106
:101CF0009581A681B78181939193A193B193E215C8
:101D0000F305A9F70E94F80A698B7A8B8B8B9C8B61
:101D100020E030E040EA50E40E946711B62EA72E82
:101D2000982E892E262F372F482F592FB201C30105
:101D30000E940E13181624F48FEFE81AF80A02C056
:101D4000E12CF12CE1E0CE1AD10829F04B2C5A2CD1
:101D5000692C782CCBCFF5E0EF16F10444F081E448
:101D600091E00E94360B88E591E00E94360B0E94BC
:101D7000CA0197CEE4E4F2E01382128248EE53E007
:101D800060E070E0448355836683778385E191E06A
:101D90009183808385EC90E09587848784EC90E044
:101DA0009787868780EC90E0918B808B81EC90E028
:101DB000938B828B82EC90E0958B848B86EC90E009
:101DC000978B868B118E128E138E148EA1EEB2E03D
:101DD00013961C921E92129714964D935D936D93D9
:101DE0007C93179787E291E011969C938E93EDEE8A
:101DF000F2E081E082AB40E856EE65EC77E445AB7B
:101E000056AB67AB70AF108297E79183B4ABA3ABCF
:101E10009AE0928393E0938314821582868387836A
:101E2000808711861286138614860895DB018F93AE
:101E30009F930E94480FBF91AF91A29F800D911D6B
:101E4000A39F900DB29F900D11240895A1E21A2E28
:101E5000AA1BBB1BFD010DC0AA1FBB1FEE1FFF1F4E
:101E6000A217B307E407F50720F0A21BB30BE40B9E
:101E7000F50B661F771F881F991F1A9469F76095E5
:101E80007095809590959B01AC01BD01CF0108959F
:101E90000E94E610A59F900DB49F900DA49F800D09
:101EA000911D11240895B7FF0C94480F0E94480F0C
:101EB000821B930B0895DF93CF931F930F939A9DEB
:101EC000F02D219FF00D8B9DF00D8A9DE02DF10DE1
:101ED000039FF00D029FE00DF11D4E9DE00DF11DE1
:101EE0005E9DF00D4F9DF00D7F936F93BF92AF926B
:101EF0005F934F93D5010E94E6108B01AC01D7018F
:101F00000E94E610EB01E80FF91FD6010E94AB0F0B
:101F10002F913F91D6010E94E610C60FD71FE81FF0
:101F2000F91FAF91BF910E94AB0F2F913F910E947B
:101F3000E610C60FD71FE81FF91FD6010E94E61052
:101F4000E60FF71F9801BE01CF0111240F911F91D9
:101F5000CF91DF9108950E94E610460F571FC81FCA
:101F6000D91F08F431960895689401C0E894F92FB8
:101F7000F12B12F00C94E80FA0E0B0E0E2ECFFE0EF
:101F80000C945A10092E059422F40E944410112337
:101F900092F4F0E80F26FFEFE094F094009510958E
:101FA000B094C094D094A194BF0ACF0ADF0AEF0A7C
:101FB000FF0A0F0B1F0B0E94F30F07FC0E94441037
:101FC000CDB7DEB7ECE00C947610689401C0E894CD
:101FD0008F929F92CF93DF930E94F30FDF91CF9167
:101FE0009F908F90089588249924F401E401B0E42F
:101FF0009F93AA279A158B049C04ED05FE05CF0537
:10200000D007A10798F4AD2FDC2FCF2FFE2FE92D9D
:10201000982C892E982F872F762F652F542F432F9A
:10202000322F2227B85031F7BF9127C01B2EBF9106
:10203000BB27220F331F441F551F661F771F881FA2
:10204000991F881C991CEE1FFF1FCC1FDD1FAA1FA4
:10205000BB1F8A149B04EC05FD05CE05DF05A00718
:10206000B10748F08A189B08EC09FD09CE09DF0981
:10207000A00BB10B21601A94E1F62EF49401AF018C
:10208000BE01CD01000C08956095709580959095E6
:1020900030954095509521953F4F4F4F5F4F6F4F73
:1020A0007F4F8F4F9F4F08952F923F924F925F9295
:1020B0006F927F928F929F92AF92BF92CF92DF9258
:1020C000EF92FF920F931F93CF93DF93CDB7DEB7BD
:1020D000CA1BDB0B0FB6F894DEBF0FBECDBF099451
:1020E0002A88398848885F846E847D848C849B84A8
:1020F000AA84B984C884DF80EE80FD800C811B81B6
:10210000AA81B981CE0FD11D0FB6F894DEBF0FBEE4
:10211000CDBFED0108950F93083090F0982F872FD1
:10212000762F652F542F432F322F22270850F4CFBC
:10213000220F331F441F551F661F771F881F991FCB
:102140000A95B2F70F91089597FB10F816940008BE
:102150000F93083098F00850232F342F452F562F17
:10216000672F782F892F902DF4CF05949795879519
:102170007795679557954795379527950A95AAF7C7
:102180000F9108952A0D3B1D4C1D5D1D6E1D7F1D79
:10219000801F911F08952A193B094C095D096E099A
:1021A0007F09800B910B08950024A7FD00942A1746
:1021B00030054005500560057005800590050895BF
:1021C000EE0FFF1F0590F491E02D0994A29FB0013E
:1021D000B39FC001A39F700D811D1124911DB29F5B
:1021E000700D811D1124911D08955058BB27AA27F9
:1021F0000E940D110C94D4120E94C61238F00E9455
:10220000CD1220F039F49F3F19F426F40C94B31248
:102210000EF4E095E7FB0C94AD12E92F0E94E51255
:1022200058F3BA17620773078407950720F079F40B
:10223000A6F50C9407130EF4E0950B2EBA2FA02DE3
:102240000B01B90190010C01CA01A0011124FF2763
:10225000591B99F0593F50F4503E68F11A16F0405E
:10226000A22F232F342F4427585FF3CF469537955D
:102270002795A795F0405395C9F77EF41F16BA0B22
:10228000620B730B840BBAF09150A1F0FF0FBB1FD0
:10229000661F771F881FC2F70EC0BA0F621F731F19
:1022A000841F48F4879577956795B795F7959E3F76
:1022B00008F0B0CF9395880F08F09927EE0F979507
:1022C000879508950E94891208F481E008950E947C
:1022D0007B110C94D4120E94CD1258F00E94C612A9
:1022E00040F029F45F3F29F00C94AD1251110C9489
:1022F00008130C94B3120E94E51268F39923B1F30A
:10230000552391F3951B550BBB27AA27621773071B
:10231000840738F09F5F5F4F220F331F441FAA1FAF
:10232000A9F335D00E2E3AF0E0E832D0915050406B
:10233000E695001CCAF72BD0FE2F29D0660F771F19
:10234000881FBB1F261737074807AB07B0E809F0FF
:10235000BB0B802DBF01FF2793585F4F3AF09E3F84
:10236000510578F00C94AD120C9408135F3FE4F320
:10237000983ED4F3869577956795B795F7959F5FC7
:10238000C9F7880F911D9695879597F90895E1E013
:10239000660F771F881FBB1F621773078407BA0772
:1023A00020F0621B730B840BBA0BEE1F88F7E095CD
:1023B00008950E94ED1288F09F5798F0B92F992741
:1023C000B751B0F0E1F0660F771F881F991F1AF020
:1023D000BA95C9F714C0B13091F00E940713B1E06B
:1023E00008950C940713672F782F8827B85F39F06A
:1023F000B93FCCF3869577956795B395D9F73EF4B9
:1024000090958095709561957F4F8F4F9F4F089560
:1024100097FB16F40E94B6120C944C12E89409C073
:1024200097FB3EF490958095709561957F4F8F4F07
:102430009F4F9923A9F0F92F96E9BB279395F6951D
:10244000879577956795B795F111F8CFFAF4BB0F9B
:1024500011F460FF1BC06F5F7F4F8F4F9F4F16C0FF
:10246000882311F096E911C0772321F09EE8872F89
:10247000762F05C0662371F096E8862F70E060E045
:102480002AF09A95660F771F881FDAF7880F9695BE
:10249000879597F90895E894F92F96EBFF2381F03B
:1024A000121613061406440B9395F69587957795A7
:1024B000679557954040FF23B9F71BC099270895AA
:1024C000882351F49850D2F7872B762F652F542FFD
:1024D000432F322F20E0B1F3121613061406440BDB
:1024E00088233AF09A95440F551F661F771F881F5F
:1024F000CAF755234AF4440F551F11F460FF04C076
:102500006F5F7F4F8F4F9F4F880F9695879597F9F5
:102510000895990F0008550FAA0BE0E8FEEF161674
:102520001706E807F907C0F012161306E407F507C7
:1025300098F0621B730B840B950B39F40A2661F03B
:10254000232B242B252B21F408950A2609F4A140DE
:10255000A6958FEF811D811D089597F99F6780E8EB
:1025600070E060E008959FEF80EC0895909580956D
:102570007095609550954095309521953F4F4F4F00
:102580005F4F6F4F7F4F8F4F9F4F089500240A94E6
:102590001616170618060906089500240A9412163E
:1025A0001306140605060895092E0394000C11F471
:1025B000882352F0BB0F40F4BF2B11F460FF04C01E
:1025C0006F5F7F4F8F4F9F4F089557FD9058440F77
:1025D000551F59F05F3F71F04795880F97FB991F82
:1025E00061F09F3F79F0879508951216130614063F
:1025F000551FF2CF4695F1DF08C0161617061806CC
:10260000991FF1CF86957105610508940895E894A6
:10261000BB2766277727CB0197F908950E94891277
:1026200008F48FEF08950E9426130C94D4120E9490
:10263000C61238F00E94CD1220F0952311F00C94B0
:10264000AD120C94B31211240C9408130E94E512DD
:1026500070F3959FC1F3950F50E0551F629FF001F5
:10266000729FBB27F00DB11D639FAA27F00DB11D0E
:10267000AA1F649F6627B00DA11D661F829F222797
:10268000B00DA11D621F739FB00DA11D621F839F1E
:10269000A00D611D221F749F3327A00D611D231FF4
:1026A000849F600D211D822F762F6A2F11249F5742
:1026B00050409AF0F1F088234AF0EE0FFF1FBB1F45
:1026C000661F771F881F91505040A9F79E3F510504
:1026D00080F00C94AD120C9408135F3FE4F3983E25
:1026E000D4F3869577956795B795F795E7959F5FAE
:1026F000C1F7FE2B880F911D9695879597F9089540
:10270000FA01EE0FFF1F309621053105A1F1611589
:10271000710561F48038BFE39B0749F168949038F4
:10272000810561F08038BFEF9B0741F099234AF59E
:10273000FF3FE1053105210519F1E8940894E7957B
:10274000D901AA2329F4AB2FBE2FF85FD0F310C014
:10275000FF5F70F4A695E0F7F73950F019F0FF3AF3
:1027600038F49F779F930DD00F9007FC90580895F1
:1027700046F00C94B31260E070E080E89FE30895A7
:102780004FE79F775F934F933F932F930E9480145F
:102790002F913F914F915F910E9413130C94DD1381
:1027A0000E948912880B990B089529F416F00C9455
:1027B000AD120C9407130C94B3120E94ED12A8F3FF
:1027C0009638A0F707F80F92E8942BE33AEA48EB23
:1027D0005FE70E9429130F920F920F924DB75EB7D9
:1027E0000F920E94C814E8E6F0E00E940F144F9187
:1027F0005F91EF91FF91E595EE1FFF1F49F0FE57A6
:10280000E0684427EE0F441FFA95E1F74195550B18
:102810000E9442140F9007FE0C9436140895DF9323
:10282000CF931F930F93FF92EF92DF927B018C0166
:10283000689406C0DA2EEF010E942613FE01E89488
:10284000A5912591359145915591A6F3EF010E94EF
:102850000D11FE019701A801DA9469F7DF90EF905E
:10286000FF900F911F91CF91DF9108959B01AC01D3
:1028700060E070E080E89FE30C9467110C94AD1267
:102880000C94FC140E94ED12D8F39923C9F3940F11
:10289000511DA3F39150504094F059F0882332F029
:1028A000660F771F881F91505040C1F79E3F51051A
:1028B0002CF7880F911D9695879597F908955F3F9E
:1028C000ACF0983E9CF0BB27869577956795B795B9
:1028D00008F4B1609395C1F7BB0F58F711F460FF8E
:1028E000E8CF6F5F7F4F8F4F9F4FE3CF0C9408135C
:1028F00016F00C94FC140C94B31268940C94AD1262
:102900000E94ED12A8F39923C1F3AEF3DF93CF93A6
:102910001F930F93FF92C92FDD2788232AF0219759
:10292000660F771F881FDAF720E030E040E85FEBA2
:102930009FE3883920F0803E38F021968F770E94FF
:10294000F610E0E9F0E004C00E94F610EDEBF0E0D4
:102950000E940F148B01BE01EC01FB2E6F57710911
:102960007595771F880B990B0E94101228E132E7AA
:1029700041E35FE30E942613AF2D9801AE01FF9063
:102980000F911F91CF91DF910E940D110C94D412E1
:10299000FA01DC01AA0FBB1F9B01AC01BF5728F451
:1029A000222733274427507820C0B75190F4AB2F0B
:1029B0000024469537952795011CA395D2F3002056
:1029C00071F0220F331F441FB395DAF30ED00C942D
:1029D000F51061307105A0E88A07B94630F49B0113
:1029E000AC016627772788279078309621F02083DE
:1029F00031834283538308959F3F31F0915020F4F7
:102A0000879577956795B795880F911D96958795CA
:102A100097F9089581E090E0F8940C940F15F894DC
:022A2000FFCFE6
:102A2200000102010301010104010101010101018F
:102A320005000000005B01C800F200A801230101AB
:102A42000115010000000061023402910208022C0B
:102A5200021802090220503A0020483A0020413A66
:102A6200004F50454E6279424D453238305F5B53DC
:102A72005543434553535D000D0A005B4552524F87
:102A8200525D424D4532383020696E69742066616C
:102A9200696C65642E2E2E006E616E00696E660092
:042AA2006F766600E5
:00000001FF
