:100000000C9463000C948B000C948B000C94FE05F4
:100010000C94FE050C94FE050C948B000C948B0044
:100020000C948B000C948B000C948B000C948B0024
:100030000C948B000C948B000C948B000C948B0014
:100040000C942E040C948B000C949E040C94780455
:100050000C948B000C948B000C948B000C948B00F4
:100060000C94D0040C948B000000000800020100E6
:100070000003040700000000000000000000000072
:1000800023002600290000000000240027002A0089
:1000900000000000250028002B00040404040404D0
:1000A0000404020202020202030303030303010227
:1000B00004081020408001020408102001020408F6
:1000C00010207806630A11241FBECFEFD8E0DEBFF0
:1000D000CDBF11E0A0E0B1E0EAE3FAE102C0059093
:1000E0000D92A834B107D9F723E0A8E4B1E001C02C
:1000F0001D92A73AB207E1F710E0C2E6D0E004C0D3
:100100002197FE010E94C90AC136D107C9F70E9492
:1001100033080C94100D0C94000090E0FC01E85999
:10012000FF4F2491FC01E255FF4F3491FC01E6564C
:10013000FF4FE491EE2309F43CC0222339F1233030
:1001400091F038F42130A9F0223001F584B58F7D8B
:1001500012C0273091F02830A1F02430B9F48091FA
:1001600080008F7D03C0809180008F778093800016
:100170000DC084B58F7784BD09C08091B0008F77A2
:1001800003C08091B0008F7D8093B000F0E0EE0F4F
:10019000FF1FE057FF4FA591B4919FB7F8946111ED
:1001A00004C08C913095382302C0EC913E2B3C93D7
:1001B0009FBF089508950895CF92DF92EF92FF9226
:1001C0000F931F93CF93DF936C017A018B01C0E0F3
:1001D000D0E0CE15DF0581F0D8016D918D01D601FB
:1001E000ED91FC910190F081E02DC6010995892BDC
:1001F00011F02196EECF7E01C701DF91CF911F91C3
:100200000F91FF90EF90DF90CF900895FC01538DF8
:10021000448D252F30E0842F90E0821B930B5417E0
:1002200010F0CF96089501970895FC01918D828D6D
:10023000981761F0828DDF01A80FB11D5D968C913A
:10024000928D9F5F9F73928F90E008958FEF9FEF45
:100250000895FC01918D828D981731F0828DE80F01
:10026000F11D858D90E008958FEF9FEF0895FC01BB
:10027000918D228D892F90E0805C9F4F821B910988
:100280008F739927089582E392E00E94370121E05D
:10029000892B09F420E0822F0895FC01848DDF0171
:1002A000A80FB11DA35ABF4F2C91848D90E00196E9
:1002B0008F739927848FA689B7892C93A089B189D8
:1002C0008C91837080648C93938D848D981306C079
:1002D0000288F389E02D80818F7D80830895EF92DD
:1002E000FF920F931F93CF93DF93EC0181E0888FF0
:1002F0009B8D8C8D981305C0E889F989808185FDD7
:1003000026C0F62E0B8D10E00F5F1F4F0F731127C5
:10031000E02E8C8DE8120CC00FB607FCFACFE889EE
:10032000F989808185FFF5CFCE010E944D01F1CF83
:100330008B8DFE01E80FF11DE35AFF4FF0829FB74E
:10034000F8940B8FEA89FB89808180620AC09FB78D
:10035000F894EE89FF896083E889F9898081837048
:10036000806480839FBF81E090E0DF91CF911F91F7
:100370000F91FF90EF900895CF93DF93EC01888D5C
:100380008823C9F0EA89FB89808185FD05C0A88999
:10039000B9898C9186FD0FC00FB607FCF5CF80811F
:1003A00085FFF2CFA889B9898C9185FFEDCFCE0169
:1003B0000E944D01E7CFDF91CF91089580E090E05A
:1003C000892B29F00E94430181110C9400000895AB
:1003D00085ED8093BC008091BC0084FDFCCF109221
:1003E000150208954091C801262F30E0240F311DD9
:1003F00021323105DCF4209115022430C9F4FC01CE
:1004000080E090E0861758F43091C8012191DC011A
:10041000A855BE4FA30FB11D2C930196F3CF809129
:10042000C801680F6093C80180E0089581E00895D5
:1004300082E008950895E091190280911802E8176A
:1004400030F4F0E0E857FE4F808190E008958FEFA0
:100450009FEF08959091190280911802981750F417
:10046000E92FF0E0E857FE4F208130E09F5F909346
:10047000190202C02FEF3FEFC901089580911802C1
:1004800090E020911902821B91090895CF93DF9388
:10049000CB01EA01642F0E94F201CE01DF91CF91DE
:1004A0000895CF93DF931F92CDB7DEB7698361E0E4
:1004B000CE0101960E94F20181E090E00F90DF9161
:1004C000CF91089520911C0230911D022817390701
:1004D00071F490911A0280911B02981741F0E091FB
:1004E0001A02F0E0E85BFE4F808190E008958FEF04
:1004F0009FEF08951F93CF93DF93DC015C968D915E
:100500009C915D97009739F421E030E013963C937D
:100510002E9312973BC05196ED91FC9152975096B5
:100520002C915097322F30951FB75E964C915E9765
:10053000742F727041FD6095F8944081772311F01B
:10054000422B01C043234083EC012197F1F748E09F
:10055000508160FF02C0522B01C053235083EC0135
:100560002197F1F76695415099F78081772319F02B
:100570008323808302C0282B20831FBF5C968D912C
:100580009C915D970197F1F781E090E0DF91CF9129
:100590001F91089520911C0230911D0228173907E0
:1005A00071F480911B0220911A0290E0805C9F4FB1
:1005B000821B910960E470E00E947F0A089580E048
:1005C00090E0089520911C0230911D0228173907F0
:1005D000B9F490911A0280911B02981789F0E0916A
:1005E0001A02F0E0E85BFE4F808120911A0230E0B1
:1005F0002F5F3F4F2F73332720931A0290E0089507
:100600008FEF9FEF0895089580E090E008950097A0
:1006100069F0FC0101900020E9F73197AF01481B18
:10062000590BBC0182E392E00C94DC0080E090E086
:1006300008958F929F92AF92BF920F931F93CF9383
:10064000DF93CDB7DEB7A1970FB6F894DEBF0FBE2C
:10065000CDBF19A2423008F44AE08E010F5D1F4F52
:10066000842E912CA12CB12CA50194010E94930AF7
:10067000E62FB901CA0101501109EA3014F4E05D16
:1006800001C0E95CD801EC93232B242B252B61F7C7
:10069000C8010E940703A1960FB6F894DEBF0FBEF3
:1006A000CDBFDF91CF911F910F91BF90AF909F90E1
:1006B0008F9008958F929F92AF92BF92CF92DF92C8
:1006C000EF92FF920F931F93CF93DF936B017C0107
:1006D000142F9B01AC010E94060D882319F086E3BC
:1006E00091E027C046015701E894B7F82FEF3FEF9C
:1006F0004FE75FE7C501B4010E94060D81110DC0EF
:100700002FEF3FEF4FE75FE7C501B4010E943C0BBD
:1007100018161CF48AE391E00CC02FEF3FEF4FE76F
:100720005FE4C701B6010E94940C181684F48EE3AE
:1007300091E0DF91CF911F910F91FF90EF90DF90AB
:10074000CF90BF90AF909F908F900C9407032FEFA6
:100750003FEF4FE75FECC701B6010E943C0B87FDFE
:10076000E6CF20E030E0A901C701B6010E943C0BB2
:1007700087FF0BC06DE282E392E00E946F01EC0103
:10078000F7FAF094F7F8F09402C0C0E0D0E000E08F
:1007900060E070E080E09FE3101741F020E030E07F
:1007A00040E251E40E94410B0F5FF6CFA701960192
:1007B0000E94D00A6B017C010E94B30B4B015C01CB
:1007C0004AE00E941903C80FD91F1123B9F1C501CE
:1007D000B4010E94E20B9B01AC01C701B6010E946B
:1007E000CF0A6B017C016EE282E392E00E946F010E
:1007F000C80FD91F20E030E040E251E4C701B60144
:100800000E94990C4B015C010E94B30B6B01E12C1F
:10081000F12C4AE0C701B6010E941903C80FD91F85
:10082000C701B6010E94E20B9B01AC01C501B401F6
:100830000E94CF0A6B017C011150E1F6CE01DF91DD
:10084000CF911F910F91FF90EF90DF90CF90BF90CD
:10085000AF909F908F9008950E940B0D1F920F9262
:100860000FB60F9211242F933F938F939F93AF93C3
:10087000BF9380912E0290912F02A0913002B091EF
:10088000310230912D0226E0230F2D3720F40296FD
:10089000A11DB11D05C029E8230F0396A11DB11D9F
:1008A00020932D0280932E0290932F02A09330026A
:1008B000B09331028091290290912A02A0912B02DB
:1008C000B0912C020196A11DB11D80932902909335
:1008D0002A02A0932B02B0932C02BF91AF919F915B
:1008E0008F913F912F910F900FBE0F901F901895F1
:1008F0001F920F920FB60F9211242F933F934F9395
:100900005F936F937F938F939F93AF93BF93EF9377
:10091000FF9382E392E00E944D01FF91EF91BF911E
:10092000AF919F918F917F916F915F914F913F9187
:100930002F910F900FBE0F901F9018951F920F923E
:100940000FB60F9211242F938F939F93EF93FF93E2
:10095000E0914202F09143028081E0914802F091DF
:10096000490282FD12C0908180914B028F5F8F738C
:1009700020914C02821751F0E0914B02F0E0EE5CC6
:10098000FD4F958F80934B0201C08081FF91EF91C5
:100990009F918F912F910F900FBE0F901F901895E0
:1009A0001F920F920FB60F9211242F933F934F93E4
:1009B0005F936F937F938F939F93AF93BF93EF93C7
:1009C000FF938091B900887F803609F49CC068F558
:1009D000883209F45BC090F4803109F454C038F4D3
:1009E000882309F4F6C0883009F44DC0F6C0883178
:1009F00009F44CC0803209F45DC0EFC0803409F4C2
:100A000068C048F4803309F455C0883309F0E5C064
:100A10008093EB01D8C0803509F44FC0883509F4C4
:100A20005DC0883409F0D9C0D6C0883909F4C7C080
:100A3000A8F4883709F467C038F4883609F463C02D
:100A4000803709F460C0C9C0883809F4B8C080395B
:100A500009F45FC0803809F0C0C05BC0803B09F476
:100A600086C038F4803A09F466C0883A09F47FC039
:100A7000B4C0803C09F4A7C0883C09F4A4C0883BFA
:100A800009F48AC0AAC080910E0210C090910D0294
:100A900080910C02981770F5E0910D0281E08E0FA5
:100AA00080930D02F0E0E451FE4F80818093BB0003
:100AB00085EC86C08093EB018EC0E0910D0281E051
:100AC0008E0F80930D028091BB00F0E0E451FE4F49
:100AD000808390910D0280910C026EC0E0910D0216
:100AE00081E08E0F80930D028091BB00F0E0E45115
:100AF000FE4F80838091140281116DC081E080934C
:100B0000130284EA61C083E0809315021092EA0127
:100B1000CFCF8091EA01803208F051C0E091EA0124
:100B200081E08E0F8093EA018091BB00F0E0E653F4
:100B3000FE4F8083BDCF85EC8093BC0010921502E0
:100B40008091EA01803230F4E091EA01F0E0E6536E
:100B5000FE4F10826091EA0170E0E0910F02F09187
:100B600010028AEC91E009951092EA0136C084E007
:100B7000809315021092C9011092C801E0911102F0
:100B8000F091120209958091C801811105C081E0A0
:100B90008093C8011092A801E091C90181E08E0FF5
:100BA0008093C901F0E0E855FE4F80818093BB003F
:100BB0009091C9018091C801981708F479CF85E810
:100BC0008093BC000AC085EC8093BC001092150293
:100BD00004C01092EB010E94E801FF91EF91BF91D8
:100BE000AF919F918F917F916F915F914F913F91C5
:100BF0002F910F900FBE0F901F9018951F920F927C
:100C00000FB60F9211242F933F934F935F936F93DF
:100C10007F938F939F93AF93BF93EF93FF93E09155
:100C20001C02F0911D02309709F451C0968DA685E3
:100C3000B785858591FF04C09C91892329F447C01D
:100C40009C91892309F043C0A389B4899C9185892B
:100C5000809589238C93868997890197F1F7608D18
:100C6000718DA685B785558538E020E0CB010197C9
:100C7000F1F7822F90E095958795282F4C91452389
:100C800009F02068315091F7868D81FD2095809183
:100C90001B0290E001968F73992730911A02381742
:100CA00049F0A0911B02B0E0A85BBE4F2C9380934B
:100CB0001B0203C0868D8160868F828D938D019784
:100CC000F1F7A389B4899C918589892B8C93FF9135
:100CD000EF91BF91AF919F918F917F916F915F91B4
:100CE0004F913F912F910F900FBE0F901F9018952D
:100CF000CF93DF93109235021092340288EE93E086
:100D0000A0E0B0E08093360290933702A0933802BF
:100D1000B093390224E031E0309333022093320261
:100D200025EC30E030933F0220933E0224EC30E08B
:100D3000309341022093400220EC30E03093430294
:100D40002093420221EC30E030934502209344028C
:100D500022EC30E0309347022093460226EC30E04C
:100D6000309349022093480210924B0210924C0299
:100D700010924D0210924E021092D2021092D102A5
:100D80008093D3029093D402A093D502B093D6025D
:100D900026E131E03093D0022093CF021092FA0284
:100DA0001092FB021092FD021092FC021092FE02C1
:100DB0001092FF021092000310920103109202039E
:100DC000109204031092030310920503109206037D
:100DD00010920703109208031092090310920B035C
:100DE00010920A0310920C0310920D0310920E033E
:100DF00010920F031092100310921203109211031D
:100E000010921303109214031092150310921603FC
:100E10001092170310921C0310921D0310921E03D0
:100E200010921F03109220031092210310922A03A4
:100E300010922B0310922C0310922D0310922E036C
:100E400010922F03109238031092390310923E0330
:100E500010923F03109240031092410310924603F8
:100E60001092470310924C0310924D0310924E03C0
:100E700010924F03109254031092550310925A038C
:100E800010925B0310925C0310925D031092620358
:100E900010926303109268031092690310926A0320
:100EA00010926B03109270031092710310927603EC
:100EB00010927703109278031092790310927E03B8
:100EC00010927F0322E020938F03109290031092E0
:100ED0009103109292031092940310929303109234
:100EE0009603109295031092970310929803109214
:100EF000990310929A0310929B0310929C031092F4
:100F00009D0310929E0310929F031092A0031092D3
:100F1000A1031092A2031092A3031092A4031092B3
:100F2000A5031092A603109280031092DE02109285
:100F3000DD028093DF029093E002A093E102B09380
:100F4000E20288E291E09093DC028093DB0210924F
:100F5000F2021092F1021092F4021092F302109237
:100F6000F6021092F5021092F8021092F7026091C8
:100F7000F9026E7F6D7F6093F9026695617081E082
:100F8000682782E00E948D00E0EBF0E02491ECE91C
:100F9000F0E08491882399F090E0880F991FFC017C
:100FA000EA57FF4FA591B491FC01E057FF4F85919F
:100FB00094918FB7F894EC91E22BEC938FBFE0EB18
:100FC000F0E0E491E093EB02ECE9F0E0E491F0E092
:100FD000EE0FFF1FE057FF4F859194919093ED0224
:100FE0008093EC02E1EBF0E02491EDE9F0E08491F4
:100FF0008823C1F090E0880F991FFC01EA57FF4F4A
:10100000C591D491FC01E057FF4FA591B4919FB7D2
:10101000F8948881E22FE0958E2388838C91E823D1
:10102000EC939FBF8091F90281FD04C061E083E0F1
:101030000E948D0083E08093E702E1EBF0E0E49111
:10104000E093E802EDE9F0E0E491F0E0EE0FFF1F3D
:10105000E458FF4F859194919093EA028093E902BE
:10106000DF91CF910895789484B5826084BD84B572
:10107000816084BD85B5826085BD85B5816085BD93
:1010800080916E00816080936E001092810080914B
:1010900081008260809381008091810081608093D3
:1010A0008100809180008160809380008091B100F8
:1010B00084608093B1008091B00081608093B00023
:1010C00080917A00846080937A0080917A008260B7
:1010D00080937A0080917A008E7F80937A0080914D
:1010E0007A00806880937A001092C10010921902F1
:1010F0001092180210921702109216021092150206
:1011000081E0809314021092130261E082E10E9458
:101110008D0061E083E10E948D008091B9008E7F97
:101120008093B9008091B9008D7F8093B90080E2EF
:101130008093B80085E48093BC008AED90E09093A2
:101140001202809311028BED90E090931002809335
:101150000F02E0914202F091430282E08083E0912D
:101160003E02F0913F021082E0914002F091410274
:1011700087E6808310924A02E0914602F09147028E
:1011800086E08083E0914402F09145028081806195
:101190008083E0914402F0914502808188608083E1
:1011A000E0914402F0914502808180688083E09163
:1011B0004402F091450280818F7D80831092F60277
:1011C0001092F5021092F4021092F3021092F202C1
:1011D0001092F1028DE991E09093F8028093F7026A
:1011E0009091E702963108F058C02DEB30E0309333
:1011F000F2022093F1022BE931E03093F4022093C4
:10120000F3022CE231E03093F6022093F502409194
:101210006800983058F031E09E3008F430E021E06A
:10122000822F01C0880F3A95EAF701C084E0842B31
:1012300080936800983038F09E3040F0963148F046
:1012400020E030E008C02DE630E005C02BE630E0BD
:1012500002C02CE630E03093EF022093EE0298308B
:1012600030F481E001C0880F9A95EAF70EC0292F6B
:1012700030E09E3018F42850310902C02E50310958
:1012800081E001C0880F2A95EAF78093F0028091EF
:10129000F7029091F8020197F1F78091F502909191
:1012A000F602892B49F1E0911C02F0911D0282E0C7
:1012B000EB3DF80709F1309739F0A389B4899C9187
:1012C0008589809589238C938091F9028E7F809304
:1012D000F90210921B0210921A028BED92E0909389
:1012E0001D0280931C02E091EE02F091EF029081CA
:1012F0008091F002892B808380E1882E87E2982EEE
:10130000A12CB12C94E6C92ED12CE12CF12C80918A
:10131000FA02882309F45EC01092FB026091FE027B
:101320007091FF0280910003909101030E94E20BF3
:1013300028E23BE64EE65EE40E94410B2B013C01B5
:101340006091FC027091FD0280E090E00E94E20B4F
:101350009B01AC01C301B2010E94D00A209102039B
:10136000DC01CB012111B058809325029093260215
:10137000A0932702B09328026091050370910603A1
:1013800080910703909108030E94E20B28E23BE65C
:101390004EE65EE40E94410B2B013C016091030389
:1013A0007091040380E090E00E94E20B9B01AC018D
:1013B000C301B2010E94D00A20910903DC01CB01D4
:1013C0002111B0588093210290932202A09323020E
:1013D000B093240280912A03882381F110922B0379
:1013E00040902C0350902D0360902E0370902F039B
:1013F000C301B20120E432E44FE050E00E94930ABE
:1014000020932002C301B201A50194010E94930A16
:10141000CA01B901A70196010E94930A60931F02B5
:10142000C301B201A70196010E94930ACA01B90142
:10143000A70196010E94930A60931E026091250203
:1014400070912602809127029091280242E00E942A
:101450005A0382E491E00E94070360912102709197
:101460002202809123029091240242E00E945A03BA
:1014700084E491E00E9407036091200270E080E024
:1014800090E04AE00E94190386E491E00E9407037D
:1014900060911F0270E080E090E04AE00E94190332
:1014A00086E491E00E94070360911E0270E080E0F4
:1014B00090E04AE00E94190384E491E00E9407034F
:1014C0000E94DE0124CF88E291E09093DC028093B9
:1014D000DB0280911C0290911D028B5D924071F4A1
:1014E000E091EE02F091EF0290818091F002809500
:1014F0008923808310921D0210921C02089597FB8D
:10150000072E16F4009407D077FD09D00E94B50A83
:1015100007FC05D03EF4909581959F4F08957095F6
:1015200061957F4F0895A1E21A2EAA1BBB1BFD01F6
:101530000DC0AA1FBB1FEE1FFF1FA217B307E407B2
:10154000F50720F0A21BB30BE40BF50B661F771F0A
:10155000881F991F1A9469F76095709580959095EA
:101560009B01AC01BD01CF010895AA1BBB1B51E13A
:1015700007C0AA1FBB1FA617B70710F0A61BB70B03
:10158000881F991F5A95A9F780959095BC01CD01A8
:101590000895EE0FFF1F0590F491E02D0994505827
:1015A000BB27AA270E94E70A0C945A0C0E944C0CF5
:1015B00038F00E94530C20F039F49F3F19F426F4C0
:1015C0000C94490C0EF4E095E7FB0C94430CE92FC6
:1015D0000E946B0C58F3BA176207730784079507CC
:1015E00020F079F4A6F50C948D0C0EF4E0950B2EFA
:1015F000BA2FA02D0B01B90190010C01CA01A00165
:101600001124FF27591B99F0593F50F4503E68F1BF
:101610001A16F040A22F232F342F4427585FF3CF00
:10162000469537952795A795F0405395C9F77EF4D1
:101630001F16BA0B620B730B840BBAF09150A1F01A
:10164000FF0FBB1F661F771F881FC2F70EC0BA0FA0
:10165000621F731F841F48F4879577956795B79528
:10166000F7959E3F08F0B0CF9395880F08F0992723
:10167000EE0F9795879508950E941F0C08F481E05E
:1016800008950E94550B0C945A0C0E94530C58F06C
:101690000E944C0C40F029F45F3F29F00C94430C5D
:1016A00051110C948E0C0C94490C0E946B0C68F335
:1016B0009923B1F3552391F3951B550BBB27AA270B
:1016C00062177307840738F09F5F5F4F220F331F45
:1016D000441FAA1FA9F335D00E2E3AF0E0E832D00D
:1016E00091505040E695001CCAF72BD0FE2F29D010
:1016F000660F771F881FBB1F261737074807AB07E2
:10170000B0E809F0BB0B802DBF01FF2793585F4F56
:101710003AF09E3F510578F00C94430C0C948E0CDB
:101720005F3FE4F3983ED4F3869577956795B79538
:10173000F7959F5FC9F7880F911D9695879597F943
:101740000895E1E0660F771F881FBB1F62177307BC
:101750008407BA0720F0621B730B840BBA0BEE1FD1
:1017600088F7E09508950E94730C88F09F5798F0D1
:10177000B92F9927B751B0F0E1F0660F771F881F96
:10178000991F1AF0BA95C9F714C0B13091F00E94B0
:101790008D0CB1E008950C948D0C672F782F88275D
:1017A000B85F39F0B93FCCF3869577956795B395D7
:1017B000D9F73EF490958095709561957F4F8F4F46
:1017C0009F4F0895E89409C097FB3EF4909580954B
:1017D000709561957F4F8F4F9F4F9923A9F0F92FF7
:1017E00096E9BB279395F695879577956795B79575
:1017F000F111F8CFFAF4BB0F11F460FF1BC06F5F5B
:101800007F4F8F4F9F4F16C0882311F096E911C06C
:10181000772321F09EE8872F762F05C0662371F08D
:1018200096E8862F70E060E02AF09A95660F771FA1
:10183000881FDAF7880F9695879597F90895990F7D
:101840000008550FAA0BE0E8FEEF16161706E8078A
:10185000F907C0F012161306E407F50798F0621BAB
:10186000730B840B950B39F40A2661F0232B242B80
:10187000252B21F408950A2609F4A140A6958FEF9F
:10188000811D811D089597F99F6780E870E060E0F1
:1018900008959FEF80EC089500240A941616170609
:1018A00018060906089500240A9412161306140651
:1018B00005060895092E0394000C11F4882352F0B4
:1018C000BB0F40F4BF2B11F460FF04C06F5F7F4F6C
:1018D0008F4F9F4F089557FD9058440F551F59F053
:1018E0005F3F71F04795880F97FB991F61F09F3F0D
:1018F00079F087950895121613061406551FF2CF36
:101900004695F1DF08C0161617061806991FF1CF85
:1019100086957105610508940895E894BB276627AC
:101920007727CB0197F908950E941F0C08F48FEFD9
:1019300008950E94AC0C0C945A0C0E944C0C38F088
:101940000E94530C20F0952311F00C94430C0C943E
:10195000490C11240C948E0C0E946B0C70F3959F13
:10196000C1F3950F50E0551F629FF001729FBB2796
:10197000F00DB11D639FAA27F00DB11DAA1F649F32
:101980006627B00DA11D661F829F2227B00DA11DE5
:10199000621F739FB00DA11D621F839FA00D611D6B
:1019A000221F749F3327A00D611D231F849F600D8C
:1019B000211D822F762F6A2F11249F5750409AF0B5
:1019C000F1F088234AF0EE0FFF1FBB1F661F771F41
:1019D000881F91505040A9F79E3F510580F00C940C
:1019E000430C0C948E0C5F3FE4F3983ED4F3869541
:1019F00077956795B795F795E7959F5FC1F7FE2BAC
:101A0000880F911D9695879597F908950E941F0C50
:101A1000880B990B089581E090E0F8940C94100DD8
:101A200010E0C2E6D0E004C0FE010E94C90A21967F
:0A1A3000C336D107C9F7F894FFCFC1
:101A3A00000000006F01DC000601BC01370115013E
:101A4A002901000000005102460204031A023E0264
:101A5A002A021B02000000007A02DC0004031A02B8
:101A6A00CA02E20262026E616E00696E66006F76F9
:081A7A0066002F000A003A008B
:00000001FF
