:100000000C948C000C94B4000C94B4000C947A05FD
:100010000C947A050C947A050C94B4000C94B400FA
:100020000C94B4000C94B4000C94B4000C94B40080
:100030000C94B4000C94B4000C94B4000C94B40070
:100040000C9472070C94B4000C941A040C94F403EE
:100050000C94B4000C94B4000C94B4000C94B40050
:100060000C944C040C94B400D30AE50AE80AEF0A95
:10007000F60A240B2B0B380B450B510B510B510B74
:10008000510B510B510B510B510B510B510B510B90
:10009000510B510B510B510B510B510B510B510B80
:1000A000510B510B510B510BD30AE00AE50AE80A38
:1000B000EF0AF60AFD0A0A0B170B000000080002FF
:1000C0000100000304070000000000000000000021
:1000D0000000230026002900000000002400270063
:1000E0002A0000000000250028002B00040404045E
:1000F00004040404020202020202030303030303D2
:1001000001020408102040800102040810200102AE
:1001100004081020AE0C920C11241FBECFEFD8E0C3
:10012000DEBFCDBF11E0A0E0B1E0E8E2F3E202C043
:1001300005900D92A036B107D9F723E0A0E6B1E013
:1001400001C01D92AF3BB207E1F710E0CBE8D0E071
:1001500004C02197FE010E94EB0ECA38D107C9F7EF
:100160000E94BC070C9487110C9400000895089518
:10017000CF92DF92EF92FF920F931F93CF93DF9373
:100180006C017A018B01C0E0D0E0CE15DF0581F073
:10019000D8016D918D01D601ED91FC910190F08116
:1001A000E02DC6010995892B11F02196EECF7E0135
:1001B000C701DF91CF911F910F91FF90EF90DF90DA
:1001C000CF900895FC01538D448D252F30E0842F6E
:1001D00090E0821B930B541710F0CF96089501976F
:1001E0000895FC01918D828D981761F0828DDF0159
:1001F000A80FB11D5D968C91928D9F5F9F73928F1A
:1002000090E008958FEF9FEF0895FC01918D828D0E
:10021000981731F0828DE80FF11D858D90E00895DB
:100220008FEF9FEF0895FC01918D228D892F90E033
:10023000805C9F4F821B91098F739927089581E4F9
:1002400092E00E94130121E0892B09F420E0822F23
:100250000895FC01848DDF01A80FB11DA35ABF4F83
:100260002C91848D90E001968F739927848FA689B5
:10027000B7892C93A089B1898C91837080648C9309
:10028000938D848D981306C00288F389E02D8081B8
:100290008F7D80830895EF92FF920F931F93CF93EA
:1002A000DF93EC0181E0888F9B8D8C8D981305C0C6
:1002B000E889F989808185FD26C0F62E0B8D10E036
:1002C0000F5F1F4F0F731127E02E8C8DE8120CC0AB
:1002D0000FB607FCFACFE889F989808185FFF5CF51
:1002E000CE010E942901F1CF8B8DFE01E80FF11D97
:1002F000E35AFF4FF0829FB7F8940B8FEA89FB898E
:10030000808180620AC09FB7F894EE89FF8960837C
:10031000E889F98980818370806480839FBF81E050
:1003200090E0DF91CF911F910F91FF90EF90089592
:10033000CF93DF93EC01888D8823C9F0EA89FB898C
:10034000808185FD05C0A889B9898C9186FD0FC083
:100350000FB607FCF5CF808185FFF2CFA889B98958
:100360008C9185FFEDCFCE010E942901E7CFDF916F
:10037000CF91089580E090E0892B29F00E941F0121
:1003800081110C940000089585ED8093BC0080914C
:10039000BC0084FDFCCF10922D0208954091E00135
:1003A000262F30E0240F311D21323105DCF420915D
:1003B0002D022430C9F4FC0180E090E0861758F447
:1003C0003091E0012191DC01A054BE4FA30FB11D7B
:1003D0002C930196F3CF8091E001680F6093E001C8
:1003E00080E0089581E0089582E008950895E09105
:1003F000310280913002E81730F4F0E0E056FE4F11
:10040000808190E008958FEF9FEF089590913102E1
:1004100080913002981750F4E92FF0E0E056FE4F3B
:10042000208130E09F5F9093310202C02FEF3FEFB9
:10043000C90108958091300290E020913102821B21
:1004400091090895CF93DF93CB01EA01642F0E94B5
:10045000CE01CE01DF91CF910895CF93DF931F920C
:10046000CDB7DEB7698361E0CE0101960E94CE016F
:1004700081E090E00F90DF91CF91089520913402B8
:10048000309135022817390771F49091320280912A
:100490003302981741F0E0913202F0E0E05AFE4F4B
:1004A000808190E008958FEF9FEF08951F93CF9381
:1004B000DF93DC015C968D919C915D97009739F4F8
:1004C00021E030E013963C932E9312973BC0519657
:1004D000ED91FC91529750962C915097322F309578
:1004E0001FB75E964C915E97742F727041FD6095B8
:1004F000F8944081772311F0422B01C043234083BD
:10050000EC012197F1F748E0508160FF02C0522BC7
:1005100001C053235083EC012197F1F766954150B8
:1005200099F78081772319F08323808302C0282BD9
:1005300020831FBF5C968D919C915D970197F1F789
:1005400081E090E0DF91CF911F91089520913402D6
:10055000309135022817390771F4809133022091C8
:10056000320290E0805C9F4F821B910960E470E052
:100570000E94B50E089580E090E008952091340225
:100580003091350228173907B9F4909132028091E1
:100590003302981789F0E0913202F0E0E05AFE4F02
:1005A00080812091320230E02F5F3F4F2F7333273D
:1005B0002093320290E008958FEF9FEF0895089501
:1005C00080E090E00895CF93DF93EC018A859B85CE
:1005D000AC85BD858E839F83A887B9870E946607F7
:1005E0006A837B838C839D8381E089838883DF9109
:1005F000CF910895CF93DF93EC018E819F81A885E1
:10060000B9858A839B83AC83BD830E9466076A8712
:100610007B878C879D8781E089838883DF91CF9159
:1006200008952F923F924F925F926F927F928F9296
:100630009F92AF92BF92CF92DF92EF92FF920F9371
:100640001F93CF93DF93D82FC92F8B010E94690E80
:1006500024E630E040E050E00E94C90E49015A0112
:100660009B01AC0160E876E988E990E00E94A50E64
:100670006B017C01F80191828082ED2FFC2F21918A
:10068000822F022E000C990BC0970A97C0F32E32CE
:1006900039F51F0180E8882E86E9982E88E9A82E72
:1006A000B12C9AE0492E512C612C712CF101C19191
:1006B0001F010C2E000CDD0BE097CA30D10580F431
:1006C000C501B401A30192010E94C90E49015A015A
:1006D000DE010E94FC0EC60ED71EE81EF91EE6CFF4
:1006E000A5E0B0E0A70196010E94F10E6F5F7F4F79
:1006F0008F4F9F4F23E030E040E050E00E94C90E52
:10070000F80122833383448355831682DF91CF918E
:100710001F910F91FF90EF90DF90CF90BF90AF901F
:100720009F908F907F906F905F904F903F902F9011
:100730000895FF920F931F93CF93DF93EC01F880FE
:100740002DE2F21201C02196CE010E94690E9B019A
:10075000AC01A4E6B0E00E94F10EFE014991242F05
:10076000042E000C330B205331092A303105A8F335
:100770004E3241F52181022E000C330B20533109FA
:100780002A303105F8F44AE0429F8001439F100D62
:100790001124012E000C220B330B600F711F821FDE
:1007A000931F0281002E000C110B005311090A3017
:1007B000110540F4012E000C220B330B600F711F4A
:1007C000821F931F2DE2F21207C0909580957095BD
:1007D00061957F4F8F4F9F4FDF91CF911F910F9169
:1007E000FF9008950E9463111F920F920FB60F920F
:1007F00011242F933F934F935F936F937F938F9326
:100800009F93AF93BF93EF93FF9381E492E00E9495
:100810002901FF91EF91BF91AF919F918F917F91AE
:100820006F915F914F913F912F910F900FBE0F905D
:100830001F9018951F920F920FB60F9211242F93AD
:100840008F939F93EF93FF93E0915102F0915202A7
:100850008081E0915702F091580282FD12C0908190
:1008600080915A028F5F8F7320915B02821751F043
:10087000E0915A02F0E0EF5BFD4F958F80935A02B2
:1008800001C08081FF91EF919F918F912F910F90E7
:100890000FBE0F901F9018951F920F920FB60F92D8
:1008A00011242F933F934F935F936F937F938F9375
:1008B0009F93AF93BF93EF93FF938091B900887F8D
:1008C000803609F49CC068F5883209F45BC090F466
:1008D000803109F454C038F4882309F4F6C0883014
:1008E00009F44DC0F6C0883109F44CC0803209F4D7
:1008F0005DC0EFC0803409F468C048F4803309F467
:1009000055C0883309F0E5C080930302D8C0803514
:1009100009F44FC0883509F45DC0883409F0D9C0A6
:10092000D6C0883909F4C7C0A8F4883709F467C06D
:1009300038F4883609F463C0803709F460C0C9C050
:10094000883809F4B8C0803909F45FC0803809F0EC
:10095000C0C05BC0803B09F486C038F4803A09F41B
:1009600066C0883A09F47FC0B4C0803C09F4A7C0CF
:10097000883C09F4A4C0883B09F48AC0AAC08091CD
:10098000260210C09091250280912402981770F5DC
:10099000E091250281E08E0F80932502F0E0EC5F6C
:1009A000FD4F80818093BB0085EC86C0809303025D
:1009B0008EC0E091250281E08E0F80932502809108
:1009C000BB00F0E0EC5FFD4F8083909125028091A9
:1009D00024026EC0E091250281E08E0F80932502F3
:1009E0008091BB00F0E0EC5FFD4F808380912C0292
:1009F00081116DC081E080932B0284EA61C083E0A5
:100A000080932D0210920202CFCF80910202803299
:100A100008F051C0E091020281E08E0F8093020243
:100A20008091BB00F0E0EE51FE4F8083BDCF85EC9E
:100A30008093BC0010922D0280910202803230F42B
:100A4000E0910202F0E0EE51FE4F1082609102024E
:100A500070E0E0912702F091280282EE91E0099582
:100A60001092020236C084E080932D021092E101C0
:100A70001092E001E0912902F0912A0209958091FB
:100A8000E001811105C081E08093E0011092C00176
:100A9000E091E10181E08E0F8093E101F0E0E0540C
:100AA000FE4F80818093BB009091E1018091E00135
:100AB000981708F479CF85E88093BC000AC085ECCC
:100AC0008093BC0010922D0204C0109203020E9479
:100AD000C401FF91EF91BF91AF919F918F917F9151
:100AE0006F915F914F913F912F910F900FBE0F909B
:100AF0001F9018951F920F920FB60F9211242F93EB
:100B00003F934F935F936F937F938F939F93AF9395
:100B1000BF93EF93FF93E0913402F0913502309749
:100B200009F451C0968DA685B785858591FF04C0CF
:100B30009C91892329F447C09C91892309F043C0E3
:100B4000A389B4899C918589809589238C93868912
:100B500097890197F1F7608D718DA685B7855585C9
:100B600038E020E0CB010197F1F7822F90E09595D6
:100B70008795282F4C91452309F02068315091F733
:100B8000868D81FD20958091330290E001968F73D0
:100B9000992730913202381749F0A0913302B0E022
:100BA000A05ABE4F2C938093330203C0868D816080
:100BB000868F828D938D0197F1F7A389B4899C91DB
:100BC0008589892B8C93FF91EF91BF91AF919F9174
:100BD0008F917F916F915F914F913F912F910F90E6
:100BE0000FBE0F901F901895009769F0FC010190BF
:100BF0000020E9F73197AF01481B590BBC0181E494
:100C000092E00C94B80080E090E008958F929F925B
:100C1000AF92BF920F931F93CF93DF93CDB7DEB701
:100C2000A1970FB6F894DEBF0FBECDBF19A2423018
:100C300008F44AE08E010F5D1F4F842E912CA12CE9
:100C4000B12CA50194010E94C90EE62FB901CA0179
:100C500001501109EA3014F4E05D01C0E95CD801EB
:100C6000EC93232B242B252B61F7C8010E94F4055C
:100C7000A1960FB6F894DEBF0FBECDBFDF91CF9126
:100C80001F910F91BF90AF909F908F9008958F927A
:100C90009F92AF92BF92CF92DF92EF92FF920F930B
:100CA0001F93CF93DF936B017C01142F9B01AC0149
:100CB0000E945E11882319F084E591E027C0460167
:100CC0005701E894B7F82FEF3FEF4FE75FE7C50113
:100CD000B4010E945E1181110DC02FEF3FEF4FE76D
:100CE0005FE7C501B4010E94940F18161CF488E553
:100CF00091E00CC02FEF3FEF4FE75FE4C701B60173
:100D00000E94EC10181684F48CE591E0DF91CF91ED
:100D10001F910F91FF90EF90DF90CF90BF90AF9019
:100D20009F908F900C94F4052FEF3FEF4FE75FEC0F
:100D3000C701B6010E94940F87FDE6CF20E030E0A6
:100D4000A901C701B6010E94940F87FF0BC06DE295
:100D500081E492E00E944B01EC01F7FAF094F7F87D
:100D6000F09402C0C0E0D0E000E060E070E080E01D
:100D70009FE3101741F020E030E040E251E40E9490
:100D8000990F0F5FF6CFA70196010E94280F6B0104
:100D90007C010E940B104B015C014AE00E94060698
:100DA000C80FD91F1123B9F1C501B4010E943A102F
:100DB0009B01AC01C701B6010E94270F6B017C01AA
:100DC0006EE281E492E00E944B01C80FD91F20E03F
:100DD00030E040E251E4C701B6010E94F1104B013E
:100DE0005C010E940B106B01E12CF12C4AE0C70161
:100DF000B6010E940606C80FD91FC701B6010E949E
:100E00003A109B01AC01C501B4010E94270F6B0190
:100E10007C011150E1F6CE01DF91CF911F910F912E
:100E2000FF90EF90DF90CF90BF90AF909F908F900A
:100E3000089590E0FC01E654FF4F2491FC01E0503E
:100E4000FF4F3491FC01E451FF4FE491EE2309F48C
:100E50003CC0222339F1233091F038F42130A9F03D
:100E6000223001F584B58F7D12C0273091F02830F3
:100E7000A1F02430B9F4809180008F7D03C080916F
:100E800080008F77809380000DC084B58F7784BDFC
:100E900009C08091B0008F7703C08091B0008F7D32
:100EA0008093B000F0E0EE0FFF1FEE51FF4FA591D1
:100EB000B4919FB7F894611104C08C913095382398
:100EC00002C0EC913E2B3C939FBF08952FB7F8943E
:100ED0006091BB037091BC038091BD039091BE03F0
:100EE0002FBF08951F920F920FB60F9211242F93C8
:100EF0003F938F939F93AF93BF938091BB03909148
:100F0000BC03A091BD03B091BE033091BA0326E0AB
:100F1000230F2D3720F40296A11DB11D05C029E82D
:100F2000230F0396A11DB11D2093BA038093BB0329
:100F30009093BC03A093BD03B093BE038091B6030E
:100F40009091B703A091B803B091B9030196A11D88
:100F5000B11D8093B6039093B703A093B803B093E9
:100F6000B903BF91AF919F918F913F912F910F90B6
:100F70000FBE0F901F901895789484B5826084BD41
:100F800084B5816084BD85B5826085BD85B581608D
:100F900085BD80916E00816080936E00109281000B
:100FA00080918100826080938100809181008160C6
:100FB0008093810080918000816080938000809187
:100FC000B10084608093B1008091B0008160809313
:100FD000B00080917A00846080937A0080917A00DA
:100FE000826080937A0080917A008E7F80937A006D
:100FF00080917A00806880937A001092C1001092EC
:1010000031021092300210922F0210922E02109292
:101010002D0281E080932C0210922B0261E082E18C
:101020000E94190761E083E10E9419078091B900CD
:101030008E7F8093B9008091B9008D7F8093B90035
:1010400080E28093B80085E48093BC0086EB90E05A
:1010500090932A028093290287EB90E090932802D4
:1010600080932702E0915102F091520282E0808346
:10107000E0914D02F0914E021082E0914F02F0910A
:10108000500287E6808310925902E0915502F09158
:10109000560286E08083E0915302F09154028081F1
:1010A00080618083E0915302F091540280818860D6
:1010B0008083E0915302F0915402808180688083A4
:1010C000E0915302F091540280818F7D80831092D1
:1010D000050310920403109203031092020310926E
:1010E0000103109200038DE991E090930703809330
:1010F00006039091F602963108F058C02DEB30E0CF
:1011000030930103209300032BE931E03093030374
:10111000209302032CE231E0309305032093040373
:1011200040916800983058F031E09E3008F430E08B
:1011300021E0822F01C0880F3A95EAF701C084E0D0
:10114000842B80936800983038F09E3040F09631C0
:1011500048F020E030E008C02DE630E005C02BE686
:1011600030E002C02CE630E03093FE022093FD0216
:10117000983030F481E001C0880F9A95EAF70EC0EC
:10118000292F30E09E3018F42850310902C02E502B
:10119000310981E001C0880F2A95EAF78093FF02A8
:1011A00080910603909107030197F1F78091040362
:1011B00090910503892B49F1E0913402F0913502B9
:1011C00022E0EA3EF20709F1309739F0A389B489A9
:1011D0009C918589809589238C93809108038E7FCB
:1011E0008093080310923302109232028AEE92E04A
:1011F0009093350280933402E091FD02F091FE025B
:1012000090818091FF02892B808382E0382ED1E08B
:1012100090E1892E97E2992EA12CB12C24E6C22EC2
:10122000D12CE12CF12C8AEE92E00E94A602181635
:1012300019060CF032C38AEE92E00E94BE02C82F5B
:101240008091A6039091A703A091A803B091A90350
:101250000196A11DB11D8093A6039093A703A093AF
:10126000A803B093A903C43209F45FC2E091A003BC
:10127000C53234F4CA3071F0CD3009F063C20AC00F
:10128000CA3241F0CC3209F05DC280918D038C27C7
:1012900080938D03EF3008F035C2F0E0E157FC4F4A
:1012A000108280918E03882309F41CC120918F0342
:1012B0003FEB320F822F022E000C990B363010F4C8
:1012C000C79707C02156263018F48755910901C0E9
:1012D000C097282F2295207F309190034FEB430F2A
:1012E000832F032E000C990B463010F4C79707C0CC
:1012F0003156363018F48755910901C0C097820FD6
:1013000090918D038913DAC08091B2039091B30359
:10131000A091B403B091B5030196A11DB11D8093B6
:10132000B2039093B303A093B403B093B503809139
:10133000A103882399F08091AA039091AB03A09117
:10134000AC03B091AD030196A11DB11D8093AA031A
:101350009093AB03A093AC03B093AD0310919E03A5
:101360001123B9F1113009F082C08BE293E00E94A1
:10137000FA0289E393E00E94FA028091A103882394
:1013800009F475C087E0E9E1F3E0ABE0B3E0019078
:101390000D928A95E1F787E0E0E2F3E0A2E1B3E0A5
:1013A00001900D928A95E1F70E94660760932703EA
:1013B000709328038093290390932A0310930A03C0
:1013C0001093090387E493E00E94E30285E593E02C
:1013D0004CC089E393E00E94FA028091A103882324
:1013E00021F187E0E9E1F3E0ABE0B3E001900D9299
:1013F0008A95E1F787E0E0E2F3E0A2E1B3E0019053
:101400000D928A95E1F70E94660760932703709317
:1014100028038093290390932A03D0930A03D0933F
:10142000090383E693E00E94E30280917B0390919D
:101430007C03A0917D03B0917E038093770390930A
:101440007803A0937903B0937A030E9466076093B0
:101450007303709374038093750390937603D09312
:101460007203D09371038FE793E00E94E30200912F
:10147000A4031091A5030115110509F445C1E091DC
:10148000A403F091A50366A177A1F80186A197A115
:101490000E946811892B09F037C1B801C801409634
:1014A0000E9471110E946607F80160A371A382A3D4
:1014B00093A3D5A3D4A302A513A5DDCF8091AE033A
:1014C0009091AF03A091B003B091B1030196A11D1B
:1014D000B11D8093AE039093AF03A093B003B0937C
:1014E000B10310C190919F03911145C066E371E073
:1014F0008FE893E00E946811892B41F06CE371E062
:101500008FE893E00E946811892B19F4D0939E0311
:1015100015C062E471E08FE893E00E946811892BA6
:1015200041F068E471E08FE893E00E946811892B34
:1015300019F410929E0302C030929E038091A20380
:101540009091A3039093A5038093A4030091A40317
:101550001091A5030115110509F4D4C06FE873E0DB
:10156000F80186A197A10E94681197FFC5C0F801F4
:1015700082A593A5E7CFE0919E03E23009F491C0E4
:1015800080918F03882309F48CC020E2E29FF00150
:101590001124E92B3197E932F10508F082C0EC5CA7
:1015A000FF4F0C94EB0E8FE893E00E949903609339
:1015B0003F0370934003809341039093420371C0B3
:1015C00091E0813409F043C043C069E173E009C090
:1015D00091E0833509F090E090931F0362C060E2D0
:1015E00073E08FE893E00E9411035BC091E08735C0
:1015F00009F090E09093260354C08FE893E00E9496
:101600009903609351037093520380935303909313
:10161000540347C08FE893E00E94990360935F03EF
:101620007093600380936103909362033AC08FE8E4
:1016300093E00E94690E60933103709332038093AC
:101640003303909334032DC091E081330CF490E088
:101650009093A10326C08FE893E00E94690E6093E7
:101660007B0370937C0380937D0390937E0319C06A
:101670008FE893E00E9499036093890370938A0333
:1016800080938B0390938C030CC08FE893E00E94AF
:10169000990360936D0370936E0380936F0390932F
:1016A00070030091A4031091A5030115110551F1D8
:1016B000E091A403F091A50366A177A1F80186A1AA
:1016C00097A10E946811892BE9F4F80120A531A5A2
:1016D00080919F0390E082179307A4F028173907A1
:1016E00039F440E150E06FE873E0C8010E947811DE
:1016F000F80102A513A5D9CF892B21F01092A503DB
:101700001092A40380E001C081E090919F039F5F4D
:1017100090939F031092A00391E0CA3209F090E0E9
:1017200090938E03811122C0B8C01092A003109232
:101730009F0310928D0330929E0310928E0310929D
:10174000A103ABC0EE3040F481E08E0F8093A00384
:10175000F0E0E157FC4FC08380918E0381119DC062
:1017600080918D03C827C0938D0397C08091090392
:10177000882309F45EC010920A0360910D037091F2
:101780000E0380910F03909110030E943A1028E2FB
:101790003BE64EE65EE40E94990F2B013C0160910E
:1017A0000B0370910C0380E090E00E943A109B01C3
:1017B000AC01C301B2010E94280F20911103DC018A
:1017C000CB012111B05880933D0290933E02A0932B
:1017D0003F02B09340026091140370911503809111
:1017E0001603909117030E943A1028E23BE64EE65A
:1017F0005EE40E94990F2B013C01609112037091ED
:10180000130380E090E00E943A109B01AC01C301F9
:10181000B2010E94280F20911803DC01CB01211195
:10182000B0588093390290933A02A0933B02B09350
:101830003C0280913903882381F110923A03409051
:101840003B0350903C0360903D0370903E03C30106
:10185000B20120E432E44FE050E00E94C90E209330
:101860003802C301B201A50194010E94C90ECA0148
:10187000B901A70196010E94C90E60933702C30106
:10188000B201A70196010E94C90ECA01B901A701C0
:1018900096010E94C90E6093360260913D027091DC
:1018A0003E0280913F029091400242E00E94470632
:1018B0008EE491E00E94F4056091390270913A0241
:1018C00080913B0290913C0242E00E94470680E5F5
:1018D00091E00E94F4056091380270E080E090E0B1
:1018E0004AE00E94060682E591E00E94F4056091BC
:1018F000370270E080E090E04AE00E94060682E550
:1019000091E00E94F4056091360270E080E090E082
:101910004AE00E94060680E591E00E94F4050E94DC
:10192000BA0181CC88E291E09093EB028093EA02C5
:1019300080913402909135028A5E924071F4E09178
:10194000FD02F091FE0290818091FF028095892333
:10195000808310923502109234020895CF93DF9362
:10196000109244021092430288EE93E0A0E0B0E0AF
:101970008093450290934602A0934702B093480299
:1019800024E031E0309342022093410225EC30E024
:1019900030934E0220934D0224EC30E030935002FD
:1019A00020934F0220EC30E03093520220935102FA
:1019B00021EC30E0309354022093530222EC30E0CB
:1019C000309356022093550226EC30E030935802B3
:1019D0002093570210925A0210925B0210925C02FE
:1019E00010925D021092E1021092E0028093E202F6
:1019F0009093E302A093E402B093E50226E131E084
:101A00003093DF022093DE021092090310920A0342
:101A100010920C0310920B0310920D0310920E0300
:101A200010920F03109210031092110310921303DF
:101A300010921203109214031092150310921603C1
:101A4000109217031092180310921A0310921903A0
:101A500010921B0310921C0310921D0310921E0380
:101A600010921F0310922103109220031092220360
:101A70001092230310922403109225031092260340
:101A800010922B0310922C0310922D0310922E0310
:101A900010922F03109230031092390310923A03E0
:101AA00010923B0310923C0310923D0310923E03B0
:101AB000109247031092480310924D0310924E0368
:101AC00010924F0310925003109255031092560338
:101AD00010925B0310925C0310925D0310925E0300
:101AE00010926303109264031092690310926A03C8
:101AF00010926B0310926C03109271031092720398
:101B000010927703109278031092790310927A035F
:101B100010927F0310928003109285031092860327
:101B2000109287031092880310928D0310928E03F7
:101B300022E020939E0310929F031092A003109224
:101B4000A1031092A3031092A2031092A503109276
:101B5000A4031092A6031092A7031092A803109258
:101B6000A9031092AA031092AB031092AC03109237
:101B7000AD031092AE031092AF031092B003109217
:101B8000B1031092B2031092B3031092B4031092F7
:101B9000B50310928F031092ED021092EC02809325
:101BA000EE029093EF02A093F002B093F10288E26C
:101BB00091E09093EB028093EA021092010310925D
:101BC0000003109203031092020310920503109277
:101BD00004031092070310920603609108036E7FBE
:101BE0006D7F609308036695617081E0682782E0ED
:101BF0000E941907E2E0F1E02491EEEEF0E084911A
:101C0000882399F090E0880F991FFC01E852FF4F5C
:101C1000A591B491FC01EE51FF4F859194918FB73E
:101C2000F894EC91E22BEC938FBFE2E0F1E0E491C9
:101C3000E093FA02EEEEF0E0E491F0E0EE0FFF1F29
:101C4000EE51FF4F859194919093FC028093FB029B
:101C5000E3E0F1E02491EFEEF0E084918823C1F01D
:101C600090E0880F991FFC01E852FF4FC591D49175
:101C7000FC01EE51FF4FA591B4919FB7F894888174
:101C8000E22FE0958E2388838C91E823EC939FBF0D
:101C90008091080381FD04C061E083E00E94190780
:101CA00083E08093F602E3E0F1E0E491E093F70251
:101CB000EFEEF0E0E491F0E0EE0FFF1FE253FF4F94
:101CC000859194919093F9028093F802DF91CF91DE
:101CD00008951F93FC0199278827BC01E89411916E
:101CE0001032E9F3193010F01E30C8F31B3251F0F6
:101CF0001D3249F4689406C00E94900E610F711D58
:101D0000811D911D119110531A30B0F33EF490953E
:101D10008095709561957F4F8F4F9F4F1F910895CC
:101D2000592F482F372F262F660F771F881F991F8F
:101D3000660F771F881F991F620F731F841F951FDF
:101D4000660F771F881F991F0895DB018F939F935C
:101D50000E94F10EBF91AF91A29F800D911DA39F94
:101D6000900DB29F900D1124089597FB072E16F445
:101D7000009407D077FD09D00E94040F07FC05D01E
:101D80003EF4909581959F4F0895709561957F4F92
:101D90000895A1E21A2EAA1BBB1BFD010DC0AA1FAC
:101DA000BB1FEE1FFF1FA217B307E407F50720F0C4
:101DB000A21BB30BE40BF50B661F771F881F991F3F
:101DC0001A9469F760957095809590959B01AC0188
:101DD000BD01CF010895EE0FFF1F0590F491E02D96
:101DE00009940E94180FA59F900DB49F900DA49F79
:101DF000800D911D11240895B7FF0C94F10E0E94DF
:101E0000F10E821B930B0895AA1BBB1B51E107C067
:101E1000AA1FBB1FA617B70710F0A61BB70B881F7A
:101E2000991F5A95A9F780959095BC01CD01089509
:101E3000A29FB001B39FC001A39F700D811D11240B
:101E4000911DB29F700D811D1124911D0895505850
:101E5000BB27AA270E943F0F0C94B2100E94A41027
:101E600038F00E94AB1020F039F49F3F19F426F4AB
:101E70000C94A1100EF4E095E7FB0C949B10E92F55
:101E80000E94C31058F3BA176207730784079507B7
:101E900020F079F4A6F50C94E5100EF4E0950B2EE5
:101EA000BA2FA02D0B01B90190010C01CA01A001AC
:101EB0001124FF27591B99F0593F50F4503E68F107
:101EC0001A16F040A22F232F342F4427585FF3CF48
:101ED000469537952795A795F0405395C9F77EF419
:101EE0001F16BA0B620B730B840BBAF09150A1F062
:101EF000FF0FBB1F661F771F881FC2F70EC0BA0FE8
:101F0000621F731F841F48F4879577956795B7956F
:101F1000F7959E3F08F0B0CF9395880F08F099276A
:101F2000EE0F9795879508950E94771008F481E049
:101F300008950E94AD0F0C94B2100E94AB1058F09F
:101F40000E94A41040F029F45F3F29F00C949B10EC
:101F500051110C94E6100C94A1100E94C31068F368
:101F60009923B1F3552391F3951B550BBB27AA2752
:101F700062177307840738F09F5F5F4F220F331F8C
:101F8000441FAA1FA9F335D00E2E3AF0E0E832D054
:101F900091505040E695001CCAF72BD0FE2F29D057
:101FA000660F771F881FBB1F261737074807AB0729
:101FB000B0E809F0BB0B802DBF01FF2793585F4F9E
:101FC0003AF09E3F510578F00C949B100C94E6106B
:101FD0005F3FE4F3983ED4F3869577956795B79580
:101FE000F7959F5FC9F7880F911D9695879597F98B
:101FF0000895E1E0660F771F881FBB1F6217730704
:102000008407BA0720F0621B730B840BBA0BEE1F18
:1020100088F7E09508950E94CB1088F09F5798F0BC
:10202000B92F9927B751B0F0E1F0660F771F881FDD
:10203000991F1AF0BA95C9F714C0B13091F00E94F7
:10204000E510B1E008950C94E510672F782F8827EC
:10205000B85F39F0B93FCCF3869577956795B3951E
:10206000D9F73EF490958095709561957F4F8F4F8D
:102070009F4F0895E89409C097FB3EF49095809592
:10208000709561957F4F8F4F9F4F9923A9F0F92F3E
:1020900096E9BB279395F695879577956795B795BC
:1020A000F111F8CFFAF4BB0F11F460FF1BC06F5FA2
:1020B0007F4F8F4F9F4F16C0882311F096E911C0B4
:1020C000772321F09EE8872F762F05C0662371F0D5
:1020D00096E8862F70E060E02AF09A95660F771FE9
:1020E000881FDAF7880F9695879597F90895990FC5
:1020F0000008550FAA0BE0E8FEEF16161706E807D2
:10210000F907C0F012161306E407F50798F0621BF2
:10211000730B840B950B39F40A2661F0232B242BC7
:10212000252B21F408950A2609F4A140A6958FEFE6
:10213000811D811D089597F99F6780E870E060E038
:1021400008959FEF80EC089500240A941616170650
:1021500018060906089500240A9412161306140698
:1021600005060895092E0394000C11F4882352F0FB
:10217000BB0F40F4BF2B11F460FF04C06F5F7F4FB3
:102180008F4F9F4F089557FD9058440F551F59F09A
:102190005F3F71F04795880F97FB991F61F09F3F54
:1021A00079F087950895121613061406551FF2CF7D
:1021B0004695F1DF08C0161617061806991FF1CFCD
:1021C00086957105610508940895E894BB276627F4
:1021D0007727CB0197F908950E94771008F48FEFC5
:1021E00008950E9404110C94B2100E94A41038F0BB
:1021F0000E94AB1020F0952311F00C949B100C94CE
:10220000A11011240C94E6100E94C31070F3959F46
:10221000C1F3950F50E0551F629FF001729FBB27DD
:10222000F00DB11D639FAA27F00DB11DAA1F649F79
:102230006627B00DA11D661F829F2227B00DA11D2C
:10224000621F739FB00DA11D621F839FA00D611DB2
:10225000221F749F3327A00D611D231F849F600DD3
:10226000211D822F762F6A2F11249F5750409AF0FC
:10227000F1F088234AF0EE0FFF1FBB1F661F771F88
:10228000881F91505040A9F79E3F510580F00C9453
:102290009B100C94E6105F3FE4F3983ED4F38695D0
:1022A00077956795B795F795E7959F5FC1F7FE2BF3
:1022B000880F911D9695879597F908950E9477103C
:1022C000880B990B089581E090E0F8940C948711A5
:1022D000FB01DC018D91019080190110D9F3990B5C
:1022E0000895FB01DC0101900D920020E1F70895B3
:1022F000FB01DC014150504048F001900D9200205C
:10230000C9F701C01D9241505040E0F7089510E018
:10231000CBE8D0E004C0FE010E94EB0E2196CC3841
:08232000D107C9F7F894FFCFC3
:10232800000000004B01B800E20098011301F10021
:102338000501000000002D022202E002F6011A0247
:102348000602F701000000005602B800E002F6019C
:10235800A602BE023E024750524D4300474E524D20
:102368004300475047474100474E474741002F0029
:102378000A003A006E616E00696E66006F7666004C
:00000001FF
