:100000000C9458000C9480000C9480000C94800098
:100010000C9480000C9480000C9480000C94800060
:100020000C9480000C9480000C9480000C94800050
:100030000C9480000C9480000C9480000C94800040
:100040000C9456020C9480000C94C6020C94A002EE
:100050000C9480000C9480000C9480000C94800020
:100060000C94F8020C948000000000002500280089
:100070002B00040404040404040402020202020229
:10008000030303030303010204081020408001025C
:1000900004081020010204081020000000080002DB
:1000A0000100000304070000000000000000260417
:1000B00011241FBECFEFD8E0DEBFCDBF11E0A0E01E
:1000C000B1E0EEE1FBE002C005900D92AE33B10766
:1000D000D9F722E0AEE3B1E001C01D92A838B20723
:1000E000E1F710E0C8E5D0E004C02197FE010E94CE
:1000F0008205C735D107C9F70E945F040C948D05AE
:100100000C94000090E0FC01E656FF4F2491FC01A6
:10011000EA57FF4F3491FC01EE58FF4FE491EE2374
:10012000B1F1222339F1233091F038F42130A9F0D4
:10013000223001F584B58F7D12C0273091F0283030
:10014000A1F02430B9F4809180008F7D03C08091AC
:1001500080008F77809380000DC084B58F7784BD39
:1001600009C08091B0008F7703C08091B0008F7D6F
:100170008093B000F0E0EE0FFF1FE859FF4FA5910C
:10018000B4918FB7F894EC91E32BEC938FBF089563
:1001900008950895CF92DF92EF92FF920F931F93ED
:1001A000CF93DF936C017A018B01C0E0D0E0CE15D4
:1001B000DF0581F0D8016D918D01D601ED91FC91A3
:1001C0000190F081E02DC6010995892B11F021964F
:1001D000EECF7E01C701DF91CF911F910F91FF906C
:1001E000EF90DF90CF900895FC01538D448D252F23
:1001F00030E0842F90E0821B930B541710F0CF96C1
:10020000089501970895FC01918D828D981761F0F2
:10021000828DDF01A80FB11D5D968C91928D9F5F3D
:100220009F73928F90E008958FEF9FEF0895FC01E8
:10023000918D828D981731F0828DE80FF11D858D9B
:1002400090E008958FEF9FEF0895FC01918D228D2E
:10025000892F90E0805C9F4F821B91098F739927B3
:1002600008958FED91E00E94250121E0892B09F48A
:1002700020E0822F0895FC01848DDF01A80FB11DBD
:10028000A35ABF4F2C91848D90E001968F739927CC
:10029000848FA689B7892C93A089B1898C918370AA
:1002A00080648C93938D848D981306C00288F389A3
:1002B000E02D80818F7D80830895EF92FF920F93D0
:1002C0001F93CF93DF93EC0181E0888F9B8D8C8D02
:1002D000981305C0E889F989808185FD26C0F62E2E
:1002E0000B8D10E00F5F1F4F0F731127E02E8C8DC9
:1002F000E8120CC00FB607FCFACFE889F9898081B3
:1003000085FFF5CFCE010E943B01F1CF8B8DFE0121
:10031000E80FF11DE35AFF4FF0829FB7F8940B8F5F
:10032000EA89FB89808180620AC09FB7F894EE89D0
:10033000FF896083E889F989808183708064808384
:100340009FBF81E090E0DF91CF911F910F91FF90CF
:10035000EF900895CF93DF93EC01888D8823C9F047
:10036000EA89FB89808185FD05C0A889B9898C91BE
:1003700086FD0FC00FB607FCF5CF808185FFF2CF59
:10038000A889B9898C9185FFEDCFCE010E943B01F0
:10039000E7CFDF91CF91089580E090E0892B29F09D
:1003A0000E94310181110C940000089585ED809325
:1003B000BC008091BC0084FDFCCF1092CB0108955D
:1003C00040917E01262F30E0240F311D213231056E
:1003D000DCF42091CB012430C9F4FC0180E090E0F2
:1003E000861758F430917E012191DC01A25ABE4F4C
:1003F000A30FB11D2C930196F3CF80917E01680F5E
:1004000060937E0180E0089581E0089582E0089580
:100410000895E091CF018091CE01E81730F4F0E02B
:10042000E25CFE4F808190E008958FEF9FEF08958A
:100430009091CF018091CE01981750F4E92FF0E010
:10044000E25CFE4F208130E09F5F9093CF0102C0BD
:100450002FEF3FEFC90108958091CE0190E02091E8
:10046000CF01821B91090895CF93DF93CB01EA015D
:10047000642F0E94E001CE01DF91CF910895CF93C8
:10048000DF931F92CDB7DEB7698361E0CE0101969D
:100490000E94E00181E090E00F90DF91CF910895FC
:1004A000089580E090E008950E9488051F920F92C1
:1004B0000FB60F9211242F933F938F939F93AF9377
:1004C000BF938091DB019091DC01A091DD01B0919F
:1004D000DE013091DA0126E0230F2D3720F4029659
:1004E000A11DB11D05C029E8230F0396A11DB11D53
:1004F0002093DA018093DB019093DC01A093DD016E
:10050000B093DE018091D6019091D701A091D801DE
:10051000B091D9010196A11DB11D8093D601909390
:10052000D701A093D801B093D901BF91AF919F910A
:100530008F913F912F910F900FBE0F901F901895A4
:100540001F920F920FB60F9211242F933F934F9348
:100550005F936F937F938F939F93AF93BF93EF932B
:10056000FF938FED91E00E943B01FF91EF91BF91CE
:10057000AF919F918F917F916F915F914F913F913B
:100580002F910F900FBE0F901F9018951F920F92F2
:100590000FB60F9211242F938F939F93EF93FF9396
:1005A000E091EF01F091F0018081E091F501F0918F
:1005B000F60182FD12C090818091F8018F5F8F73E8
:1005C0002091F901821751F0E091F801F0E0E15239
:1005D000FE4F958F8093F80101C08081FF91EF91CC
:1005E0009F918F912F910F900FBE0F901F90189594
:1005F0001F920F920FB60F9211242F933F934F9398
:100600005F936F937F938F939F93AF93BF93EF937A
:10061000FF938091B900887F803609F49CC068F50B
:10062000883209F45BC090F4803109F454C038F486
:10063000882309F4F6C0883009F44DC0F6C088312B
:1006400009F44CC0803209F45DC0EFC0803409F475
:1006500068C048F4803309F455C0883309F0E5C018
:100660008093A101D8C0803509F44FC0883509F4C2
:100670005DC0883409F0D9C0D6C0883909F4C7C034
:10068000A8F4883709F467C038F4883609F463C0E1
:10069000803709F460C0C9C0883809F4B8C080390F
:1006A00009F45FC0803809F0C0C05BC0803B09F42A
:1006B00086C038F4803A09F466C0883A09F47FC0ED
:1006C000B4C0803C09F4A7C0883C09F4A4C0883BAE
:1006D00009F48AC0AAC08091C40110C09091C301DE
:1006E0008091C201981770F5E091C30181E08E0FEF
:1006F0008093C301F0E0EE55FE4F80818093BB00F4
:1007000085EC86C08093A1018EC0E091C30181E099
:100710008E0F8093C3018091BB00F0E0EE55FE4F39
:1007200080839091C3018091C2016EC0E091C301AA
:1007300081E08E0F8093C3018091BB00F0E0EE5505
:10074000FE4F80838091CA0181116DC081E080934A
:10075000C90184EA61C083E08093CB011092A001BB
:10076000CFCF8091A001803208F051C0E091A0016C
:1007700081E08E0F8093A0018091BB00F0E0E058F3
:10078000FE4F8083BDCF85EC8093BC001092CB01DF
:100790008091A001803230F4E091A001F0E0E058B7
:1007A000FE4F10826091A00170E0E091C501F091D0
:1007B000C60180E891E009951092A00136C084E05E
:1007C0008093CB0110927F0110927E01E091C701CE
:1007D000F091C801099580917E01811105C081E0E9
:1007E00080937E0110925E01E0917F0181E08E0F87
:1007F00080937F01F0E0E25AFE4F80818093BB003E
:1008000090917F0180917E01981708F479CF85E857
:100810008093BC000AC085EC8093BC001092CB0191
:1008200004C01092A1010E94D601FF91EF91BF91E7
:10083000AF919F918F917F916F915F914F913F9178
:100840002F910F900FBE0F901F901895EFEDF1E0D4
:100850001382128288EE93E0A0E0B0E08483958357
:10086000A683B78324E031E03183208325EC30E098
:100870003587248724EC30E03787268720EC30E06A
:10088000318B208B21EC30E0338B228B22EC30E05B
:10089000358B248B26EC30E0378B268B118E128E15
:1008A000138E148EECE7F2E0138212828483958318
:1008B000A683B78386E191E091838083089578943D
:1008C00084B5826084BD84B5816084BD85B5826055
:1008D00085BD85B5816085BD80916E008160809306
:1008E0006E0010928100809181008260809381006F
:1008F000809181008160809381008091800081607F
:10090000809380008091B10084608093B1008091D9
:10091000B00081608093B00080917A008460809301
:100920007A0080917A00826080937A0080917A00C8
:100930008E7F80937A0080917A00806880937A001D
:100940001092C1001092CF011092CE011092CD01F1
:100950001092CC011092CB0181E08093CA011092D9
:10096000C90182E10E94820083E10E94820080919D
:10097000B9008E7F8093B9008091B9008D7F8093FC
:10098000B90080E28093B80085E48093BC0088ECD5
:1009900090E09093C8018093C70189EC90E0909318
:1009A000C6018093C501E091EF01F091F00182E072
:1009B0008083E091EB01F091EC011082E091ED0178
:1009C000F091EE0187E680831092F701E091F30148
:1009D000F091F40186E08083E091F101F091F20161
:1009E000808180618083E091F101F091F20180814A
:1009F00088608083E091F101F091F201808180684C
:100A00008083E091F101F091F20180818F7D8083FC
:100A10001092D5011092D40102E010E0C3E0D0E0C2
:100A20008091D4019091D5018130910519F0029700
:100A3000C9F034C01093D5010093D4012FB7F894B6
:100A40008091DB019091DC01A091DD01B091DE018C
:100A50002FBF8093D0019093D101A093D201B09386
:100A6000D3011CC02FB7F8948091DB019091DC0179
:100A7000A091DD01B091DE012FBF4091D0015091D6
:100A8000D1016091D2017091D301841B950BA60B0B
:100A9000B70B88389341A105B10518F00E94CC012D
:100AA000BFCF2FB7F8948091DB019091DC01A0912A
:100AB000DD01B091DE012FBF4091D0015091D101F5
:100AC0006091D2017091D301841B950BA60BB70BDB
:100AD00081319742A105B10508F345E150E064E298
:100AE00071E08FED91E00E94CA0042E050E06AE3BD
:100AF00071E08FED91E00E94CA00D093D501C093C0
:100B0000D401CCCFEE0FFF1F0590F491E02D099496
:0E0B100081E090E0F8940C948D05F894FFCFEE
:100B1E00000000005D01CA00F400AA0125010301D6
:100B2E001701000000003F023402510208022C029D
:100B3E00180209024F50454E627954494D45525F95
:0E0B4E005B535543434553535D000D0A0000B1
:00000001FF
